:020000040800F2
:100000000000012015570008E91C0008EB1C00083F
:10001000ED1C0008EF1C0008F11C000800000000A7
:10002000000000000000000000000000F31C0008B9
:10003000F51C000800000000F71C0008F91C00086F
:100040005D5700085D5700085D5700085D570008C0
:100050005D5700085D5700085D5700085D570008B0
:100060005D5700085D5700085D5700085D570008A0
:100070005D5700085D5700085D5700085D57000890
:100080005D5700085D5700085D5700085D57000880
:10009000011D00085D5700085D5700085D57000806
:1000A0005D5700085D5700085D5700085D57000860
:1000B0005D5700085D5700085D5700085D57000850
:1000C0005D5700085D5700085D5700085D57000840
:1000D0005D5700085D5700085D5700085D57000830
:1000E0005D5700085D5700085D5700085D57000820
:1000F0005D5700085D5700085D5700085D57000810
:100100005D5700085D5700085D5700085D570008FF
:100110005D5700085D5700085D5700085D570008EF
:100120005D5700085D5700085D5700085D570008DF
:1001300000000000000000000000000000000000BF
:1001400000000000000000000000000000000000AF
:10015000000000000000000000000000000000009F
:10016000000000000000000000000000000000008F
:10017000000000000000000000000000000000007F
:10018000000000000000000000000000000000006F
:10019000000000000000000000000000000000005F
:1001A000000000000000000000000000000000004F
:1001B000000000000000000000000000000000003F
:1001C000000000000000000000000000000000002F
:1001D000000000000000000000000000000000001F
:0401E0005FF8E0F1F3
:1001E80010B5054C237833B9044B13B10448AFF369
:1001F80000800123237010BD4C0300200000000084
:10020800B07A000808B5034B1BB103490348AFF3A4
:10021800008008BD0000000050030020B07A0008EC
:10022800034613F8012B002AFBD1181A013870472E
:1002380081F0004102E000BF83F0004330B54FEA8F
:1002480041044FEA430594EA050F08BF90EA020FFC
:100258001FBF54EA000C55EA020C7FEA645C7FEA8F
:10026800655C00F0E2804FEA5454D4EB5555B8BFB2
:100278006D420CDD2C4480EA020281EA030382EA23
:10028800000083EA010180EA020281EA0303362DB5
:1002980088BF30BD11F0004F4FEA01314FF4801C88
:1002A8004CEA113102D0404261EB410113F0004F9A
:1002B8004FEA03334CEA133302D0524263EB430351
:1002C80094EA050F00F0A780A4F10104D5F1200EEF
:1002D8000DDB02FA0EFC22FA05F2801841F100014A
:1002E80003FA0EF2801843FA05F359410EE0A5F11E
:1002F80020050EF1200E012A03FA0EFC28BF4CF04F
:10030800020C43FA05F3C01851EBE37101F0004504
:1003180007D54FF0000EDCF1000C7EEB00006EEB11
:100328000101B1F5801F1BD3B1F5001F0CD349089B
:100338005FEA30004FEA3C0C04F101044FEA4452F2
:1003480012F5800F80F09A80BCF1004F08BF5FEA79
:10035800500C50F1000041EB045141EA050130BD59
:100368005FEA4C0C404141EB010111F4801FA4F1FC
:100378000104E9D191F0000F04BF01460020B1FA51
:1003880081F308BF2033A3F10B03B3F120020CDA89
:100398000C3208DD02F1140CC2F10C0201FA0CF067
:1003A80021FA02F10CE002F11402D8BFC2F1200CCC
:1003B80001FA02F120FA0CFCDCBF41EA0C01904082
:1003C800E41AA2BF01EB0451294330BD6FEA0404CB
:1003D8001F3C1CDA0C340EDC04F11404C4F12002B6
:1003E80020FA04F001FA02F340EA030021FA04F3C8
:1003F80045EA030130BDC4F10C04C4F1200220FA1F
:1004080002F001FA04F340EA0300294630BD21FA5C
:1004180004F0294630BD94F0000F83F4801306BF22
:1004280081F480110134013D4EE77FEA645C18BF16
:100438007FEA655C29D094EA050F08BF90EA020FAD
:1004480005D054EA000C04BF1946104630BD91EAA5
:10045800030F1EBF0021002030BD5FEA545C05D1A8
:100468004000494128BF41F0004130BD14F58004E7
:100478003CBF01F5801130BD01F0004545F0FE415B
:1004880041F470014FF0000030BD7FEA645C1ABF90
:10049800194610467FEA655C1CBF0B46024650EAC7
:1004A800013406BF52EA033591EA030F41F40021F3
:1004B80030BD00BF90F0000F04BF0021704730B579
:1004C8004FF4806404F132044FF000054FF000014E
:1004D80050E700BF90F0000F04BF0021704730B50F
:1004E8004FF4806404F1320410F0004548BF4042E4
:1004F8004FF000013EE700BF42004FEAE2014FEA39
:1005080031014FEA02701FBF12F07F4393F07F4F13
:1005180081F06051704732F07F4208BF704793F016
:100528007F4F04BF41F40021704730B54FF4607429
:1005380001F0004521F000411CE700BF50EA01022C
:1005480008BF704730B54FF000050AE050EA0102D5
:1005580008BF704730B511F0004502D5404261EB45
:1005680041014FF4806404F132045FEA915C3FF486
:10057800D8AE4FF003025FEADC0C18BF03325FEA23
:10058800DC0C18BF033202EBDC02C2F1200300FAD4
:1005980003FC20FA02F001FA03FE40EA0E0021FAF9
:1005A80002F11444BDE600BF70B54FF0FF0C4CF4E7
:1005B800E06C1CEA11541DBF1CEA135594EA0C0F99
:1005C80095EA0C0F00F0DEF82C4481EA030621EAD4
:1005D8004C5123EA4C5350EA013518BF52EA03350F
:1005E80041F4801143F4801338D0A0FB02CE4FF0C1
:1005F8000005E1FB02E506F00042E0FB03E54FF0F1
:100608000006E1FB03569CF0000F18BF4EF0010EE8
:10061800A4F1FF04B6F5007F64F5407404D25FEAE4
:100628004E0E6D4146EB060642EAC62141EA555197
:100638004FEAC52040EA5E504FEACE2EB4F1FD0CD9
:1006480088BFBCF5E06F1ED8BEF1004F08BF5FEA57
:10065800500E50F1000041EB045170BD06F0004609
:1006680046EA010140EA020081EA0301B4EB5C04B6
:10067800C2BFD4EB0C0541EA045170BD41F48011AE
:100688004FF0000E013C00F3AB8014F1360FDEBFD3
:10069800002001F0004170BDC4F10004203C35DAAF
:1006A8000C341BDC04F11404C4F1200500FA05F332
:1006B80020FA04F001FA05F240EA020001F00042D3
:1006C80021F0004110EBD37021FA04F642EB060149
:1006D8005EEA430E08BF20EAD37070BDC4F10C0473
:1006E800C4F1200500FA04F320FA05F001FA04F237
:1006F80040EA020001F0004110EBD37041F1000123
:100708005EEA430E08BF20EAD37070BDC4F120052D
:1007180000FA05F24EEA020E20FA04F301FA05F295
:1007280043EA020321FA04F001F0004121FA04F23D
:1007380020EA020000EBD3705EEA430E08BF20EA0D
:10074800D37070BD94F0000F0FD101F00046400047
:1007580041EB010111F4801F08BF013CF7D041EAC9
:10076800060195F0000F18BF704703F000465200CD
:1007780043EB030313F4801F08BF013DF7D043EA9E
:100788000603704794EA0C0F0CEA135518BF95EA54
:100798000C0F0CD050EA410618BF52EA4306D1D1DB
:1007A80081EA030101F000414FF0000070BD50EAFA
:1007B800410606BF1046194652EA430619D094EA84
:1007C8000C0F02D150EA013613D195EA0C0F05D16E
:1007D80052EA03361CBF104619460AD181EA0301C2
:1007E80001F0004141F0FE4141F470014FF000007A
:1007F80070BD41F0FE4141F4780170BD70B54FF015
:10080800FF0C4CF4E06C1CEA11541DBF1CEA135594
:1008180094EA0C0F95EA0C0F00F0A7F8A4EB050476
:1008280081EA030E52EA03354FEA013100F088806D
:100838004FEA03334FF0805545EA131343EA126336
:100848004FEA022245EA111545EA10654FEA0026EB
:100858000EF000419D4208BF964244F1FD0404F5A4
:10086800407402D25B084FEA3202B61A65EB030500
:100878005B084FEA32024FF480104FF4002CB6EBBD
:10088800020E75EB030E22BFB61A754640EA0C003D
:100898005B084FEA3202B6EB020E75EB030E22BF7D
:1008A800B61A754640EA5C005B084FEA3202B6EBBE
:1008B800020E75EB030E22BFB61A754640EA9C007D
:1008C8005B084FEA3202B6EB020E75EB030E22BF4D
:1008D800B61A754640EADC0055EA060E18D04FEA0B
:1008E800051545EA16754FEA06164FEAC30343EAAB
:1008F80052734FEAC2025FEA1C1CC0D111F4801F78
:100908000BD141EA00014FF000004FF0004CB6E770
:1009180011F4801F04BF01430020B4F1FD0C88BF0F
:10092800BCF5E06F3FF6AFAEB5EB030C04BFB6EB1A
:10093800020C5FEA500C50F1000041EB045170BD0D
:100948000EF0004E4EEA113114EB5C04C2BFD4EB3A
:100958000C0541EA045170BD41F480114FF0000EBE
:10096800013C90E645EA060E8DE60CEA135594EA3A
:100978000C0F08BF95EA0C0F3FF43BAF94EA0C0F3D
:100988000AD150EA01347FF434AF95EA0C0F7FF4B2
:1009980025AF104619462CE795EA0C0F06D152EA06
:1009A80003353FF4FDAE1046194622E750EA4106EA
:1009B80018BF52EA43067FF4C5AE50EA41047FF4FB
:1009C8000DAF52EA43057FF4EBAE12E74FF0FF3C60
:1009D80006E000BF4FF0010C02E000BF4FF0010C31
:1009E8004DF804CD4FEA410C7FEA6C5C4FEA430CAA
:1009F80018BF7FEA6C5C1BD001B050EA410C0CBFF9
:100A080052EA430C91EA030F02BF90EA020F00205A
:100A1800704710F1000F91EA030F58BF994208BFC1
:100A280090422CBFD8176FEAE37040F0010070477E
:100A38004FEA410C7FEA6C5C02D150EA013C07D1D5
:100A48004FEA430C7FEA6C5CD6D152EA033CD3D020
:100A58005DF8040B704700BF8446104662468C461A
:100A68001946634600E000BF01B5FFF7B7FF00284D
:100A780048BF10F1000F01BD4DF808EDFFF7F4FF76
:100A88000CBF012000205DF808FB00BF4DF808ED01
:100A9800FFF7EAFF34BF012000205DF808FB00BF24
:100AA8004DF808EDFFF7E0FF94BF012000205DF846
:100AB80008FB00BF4DF808EDFFF7CEFF94BF0120FB
:100AC80000205DF808FB00BF4DF808EDFFF7C4FFF4
:100AD80034BF012000205DF808FB00BF4FEA410C3D
:100AE8007FEA6C5C02D150EA013C0AD14FEA430C20
:100AF8007FEA6C5C02D152EA033C02D14FF000005D
:100B080070474FF0010070474FEA410212F500129A
:100B180015D211D56FF47873B3EB625212D94FEA3C
:100B2800C12343F0004343EA505311F0004F23FA26
:100B380002F018BF404270474FF00000704750EA7B
:100B4800013005D111F0004008BF6FF00040704738
:100B58004FF00000704700BF0120704730B583B0E8
:100B6800182919D014461D4619291DD0172902D055
:100B7800002003B030BD6CB115F8013B8DF807308B
:100B8800013CE4B2642301220DF107010A4802F096
:100B9800A5FAF0E70120ECE701221021074803F04D
:100BA80056F800BF0120E4E700BF002210210348E7
:100BB80003F04DF80120DCE7600A0020000801403E
:100BC80030B597B000240E940F94119407940894AC
:100BD80009940A940B940194029403940494059440
:100BE800069409230C934FF480330D93012210923D
:100BF80012920225139514934FF4E01315930CA841
:100C080002F0AAFB0F230793089509944FF4806319
:100C18000A930B94294607A802F0C6FD10230193F6
:100C2800069401A802F08EFE17B030BD38B502F068
:100C380045FBFFF7C5FF00F089F800F0EFFD00F075
:100C480041FE00F011F9314C314B324A324920460D
:100C580003F0D6FE204604F018FD0021204604F0DB
:100C68001BFD2E4C00224021204602F0F0FF0A20F6
:100C780002F048FB01224021204602F0E8FF00F084
:100C880015FA40F6B83002F03DFB00F027FA00F004
:100C9800F3FB00F09FF800F029FD02F02DFB04465D
:100CA80002F02AFB054619E01D4A1378B3FA83F3CC
:100CB8005B09137002F020FB054616E0134803F0A9
:100CC80083FE00F0F9FC00F0B5F900F0AFF800F091
:100CD80093FD02F011FB001B642810D802F00CFBF6
:100CE800401B42F210739842DED80D4B1B78002B44
:100CF800E4D0064803F068FE00F0A8FBE3E70348E9
:100D080003F06FFE02F0F8FA0446E7E7AC090020AA
:100D1800610B0008650B0008A48300080008014067
:100D280068030020704708B50138012806D80B462B
:100D38001146184600F0BEFFC0B208BD04F00CFD15
:100D4800092303604FF0FF30F7E700002DE9F04179
:100D580086B0002402940394049405941B4B9A696A
:100D680042F004029A619B6903F004030193019B1A
:100D7800174D01224FF40041284602F068FF012276
:100D88004FF48071284602F062FF4FF4014302934A
:100D98000126039604944FF00208CDF8148002A9A6
:100DA800284602F059FE5027029703960494CDF87E
:100DB800148002A9284602F04FFE324639462846DA
:100DC80002F045FF06B0BDE8F08100BF0010024008
:100DD8000008014070B586B00023049303F18043F6
:100DE80003F504339A6942F008029A619B6903F09B
:100DF80008030193019B4FF40075029501260396A1
:100E080002230593074C02A9204602F025FE32462C
:100E18002946204602F01BFF02F06EFA024B1860CA
:100E280006B070BD000C01402C0A002008B502F085
:100E380063FA0A4B1B68C01AB0F57A7F00D808BD60
:100E48004FF40071064802F008FF064805F048F81C
:100E580002F052FA014B1860F1E700BF2C0A00209B
:100E6800000C0140DC7A000810B586B00024039419
:100E780004940594144B9A6942F010029A619B6994
:100E880003F010030193019B4FF470530293012365
:100E9800049302A90D4802F0DFFD0D4B1C700C4BAA
:100EA8001B78032B0AD80A4800EB830200215170F3
:100EB8009170D170117101330370F0E702F01CFAE0
:100EC800034B586106B010BD0010024000100140ED
:100ED800300A002010B5044603280ED8DFE800F0D9
:100EE800022436484FF48061304802F0A9FEA8B9C0
:100EF8002F4B03EB840301229A702D4B03EB8403E1
:100F08009A785B789A424AD0294A02EB840213798C
:100F18000133DBB21371052B3CD010BD244B03EB1E
:100F2800840300229A70E8E74FF400611F4802F03A
:100F380087FE28B91E4B03EB840301229A70DCE775
:100F48001B4B03EB840300229A70D6E74FF48051C1
:100F5800164802F075FE28B9154B03EB84030122ED
:100F68009A70CAE7124B03EB840300229A70C4E715
:100F78004FF400510D4802F063FE28B90C4B03EB07
:100F8800840301229A70B8E7094B03EB840300221B
:100F98009A70B2E79378537000231371BDE7044B3E
:100FA80003EB840400232371B7E700BF001001405E
:100FB800300A002010B500241D4B1C701CE01C4991
:100FC80001EB8301C97871B9032B09D8DFE803F075
:100FD800020A0406144606E0032404E0042402E09E
:100FE8000C4600E00224124A02EB83020121D17070
:100FF8000FE001330E4A13700D4B1878032814D8EC
:10100800FFF768FF0A4A137802EB83025278012A35
:10101800D5D0074A02EB83025278002AE9D1044A64
:1010280002EB83020021D170E3E7204610BD00BF28
:10103800300A002008B502F05FF9194B5B69C01A45
:10104800012800D808BDFFF7B5FF013803280AD8E2
:10105800DFE800F0020E161E124B01221A70124A27
:101068001378DB43137002F047F90D4B5861E9E739
:101078000C4B01221A700C4A5378DB435370F2E789
:10108800084B01221A70084A9378DB439370EAE709
:10109800044B01221A70044AD378DB43D370E2E789
:1010A800300A002068030020480A002010B582B0EA
:1010B800084A1378084C5168019152780092DB086D
:1010C80000221146204603F0C9FB204603F089FCA4
:1010D80002B010BD887B0008AC09002010B5074C91
:1010E800002323706370A370E3702371044803F036
:1010F8006BFC02F001F9A06010BD00BF480A002097
:10110800AC09002010B582B0C0B1184A1378184C49
:101118005168019152780092DB0821220021204673
:1011280003F09CFB1349204603F062FF124B212277
:101138000921204603F01EFF02B010BD0F4A1378A4
:101148000B4C5168019152780092DB082122002152
:10115800204603F083FB0749204603F049FF064B6E
:1011680021220921204603F005FFE5E7187C000845
:10117800AC0900205CC10008F0820008907B0008E0
:1011880010B582B0C0B1184A1378184C5168019153
:1011980052780092DB0821222021204603F05EFBD2
:1011A8001349204603F024FF124B21222D2120460B
:1011B80003F0E0FE02B010BD0F4A13780B4C5168E3
:1011C800019152780092DB0821222021204603F069
:1011D80045FB0749204603F00BFF064B21222D2132
:1011E800204603F0C7FEE5E738820008AC09002076
:1011F8005CC1000808830008B081000810B582B0FF
:1012080002F07AF8224B9B68C01AC82802D9204BF2
:101218009B78E3B91E4B1B790BB31E4C1E49204625
:1012280003F0E6FE1D4B21224B21204603F0A2FECF
:101238001B4B1B781B4A5168019152780092DB08BE
:1012480026224421204603F009FB02B010BD104CB1
:101258002379DB43237102F04FF8A060DAE70D4CE5
:101268000D49204603F0C4FE0C4B21224B21204699
:1012780003F080FE0A4A137851680191527800926F
:10128800DB0826224421204603F0E8FADDE700BF08
:10129800480A0020AC0900205CC10008C082000890
:1012A800E87A0008387B000810B582B010B3224AEB
:1012B8001378224C5168019152780092DB0822225F
:1012C8006221204603F0CAFA1D49204603F090FE29
:1012D8001C4B3E226C21204603F04CFE1A49204646
:1012E80003F086FE194B21226521204603F042FEB9
:1012F80002B010BD164A1378104C5168019152780B
:101308000092DB0822226221204603F0A7FA0C494A
:10131800204603F06DFE0F4B3E226921204603F064
:1013280029FE0949204603F063FE084B2122652166
:10133800204603F01FFEDBE728810008AC090020E7
:1013480024C40008F88200085CC10008FC82000878
:10135800A08000080483000810B582B070B101288D
:101368000AD11C4C1C49204603F042FE1B4B132299
:101378000221204603F0FEFD02B010BDC143154C0A
:10138800C9B2204603F0F7FE1349204603F030FEA9
:10139800124B13220221204603F0ECFD104B0A22C7
:1013A8000721204603F0E6FD0E4B0A226221204663
:1013B80003F0E0FD0C4B0A227321204603F0DAFD0E
:1013C80006230093322304222D21204603F06DFAD0
:1013D800D2E700BFAC090020F48D0008C4820008E1
:1013E800E0820008E8820008EC82000870B582B04C
:1013F800154C0121204603F0BEFE282500958023C8
:1014080018220021204603F074FA802324220021A8
:10141800204603F095FE012600962B46182220212F
:10142800204603F081FE00962B46182240212046D4
:1014380003F07AFE00962B4618226021204603F01E
:1014480073FE02B070BD00BFAC09002010B5094C96
:101458002078FFF757FE6078FFF792FEA078FFF735
:10146800CDFEE078FFF720FF0020FFF775FFFFF7BC
:10147800BDFF10BD480A002010B5074C002323709B
:101488006370A370E370237163710223A37101F089
:1014980033FFA06010BD00BF540A002000B17047A0
:1014A80038B51D4C1D49204603F0A2FD1C4B1822DF
:1014B8001321204603F05EFD1A4B182237212046DF
:1014C80003F058FD184B18224921204603F052FD1D
:1014D8001649204603F08CFD154B2422282120466E
:1014E80003F048FD134D2B4624223221204603F0F9
:1014F80041FD114B24223621204603F03BFD2B46AB
:1015080024224021204603F035FD0C4B242245219E
:10151800204603F02FFD38BDAC09002018A30008B1
:101528002C83000830830008348300088094000866
:10153800388300083C83000840830008448300087F
:1015480038B505460E4C0F49204603F051FD0E4BA9
:1015580033220321204603F00DFD0C4B33224D218D
:10156800204603F007FD05B138BD0949204603F0C0
:101578003FFD084B33223721204603F0FBFCF3E7FD
:10158800AC090020A49F0008E0820008148300082A
:10159800809400081883000838B50546174C184988
:1015A800204603F025FD174B3D220321204603F07A
:1015B800E1FC1549204603F01BFD144B3D224D214B
:1015C800204603F0D7FC05B138BD1149204603F089
:1015D8000FFD104D2B463D222E21204603F0CAFC5C
:1015E8000D4B3D223821204603F0C4FC2B463D22FA
:1015F8003C21204603F0BEFCE6E700BFAC09002012
:10160800C89700081C83000878860008248300080F
:1016180080940008288300083C83000830B583B014
:101628000446224D2249284603F0E2FC214B3D2284
:101638006C21284603F09EFC012C0ED063B21BB12E
:10164800022C1BD003B030BD0323009309233222A0
:101658007121164803F029F9F4E7144C0325009585
:10166800092332227121204603F01FF9009509232E
:101678002E227121204603F018F9E3E70B4C0325CD
:101688000095092332227121204603F00EF90095B6
:1016980009232E227121204603F007F9009509231A
:1016A8002A227121204603F000F9CBE7AC0900207B
:1016B800C89700080C83000810B50A4C2078FFF77B
:1016C800EDFEA078FFF73CFF2079FFF765FFA079D2
:1016D800FFF7A4FF462328221D21034803F030FD0D
:1016E80010BD00BF540A0020AC0900202DE9F043CA
:1016F80087B0002404941D4B9A6942F010029A6145
:101708009A6902F010020092009A9A6942F008025F
:101718009A619B6903F008030193019B4FF03C0811
:10172800CDF808804FF00109CDF80C9002250595F9
:101738000F4F02A9384602F08FF94FF470760296DF
:10174800CDF80C90049405950A4D02A9284602F09C
:1017580083F922464146384602F079FA2246314654
:10176800284602F074FA07B0BDE8F0830010024082
:10177800000C01400010014008B528B101220421E5
:10178800044802F064FA08BD00220421014802F06E
:101798005EFAF8E7000C014008B528B101220821DB
:1017A800044802F054FA08BD00220821014802F05A
:1017B8004EFAF8E7000C014008B528B101221021C3
:1017C800044802F044FA08BD00221021014802F042
:1017D8003EFAF8E7000C014008B528B101222021A3
:1017E800044802F034FA08BD00222021014802F022
:1017F8002EFAF8E7000C014010B5074C2078FFF7E7
:10180800BBFF6078FFF7C8FFA078FFF7D5FFE07847
:10181800FFF7E2FF10BD00BF480A002008B50E48D8
:101828000E4B03604FF48273436000238360C360F0
:10183800036143614FF4007282613022C261036226
:10184800436283620A23C36201F008FC00B908BD41
:10185800FFF768FAFBE700BF600A0020003001408C
:1018680000B587B00023029303930493059302689D
:10187800124B9A4202D007B05DF804FB03F56043AF
:101888009A6942F480529A619A6902F480520092ED
:10189800009A9A6942F004029A619B6903F0040372
:1018A8000193019BA023029302230393032305932F
:1018B80002A9034802F0D0F8DDE700BF003001407C
:1018C8000008014008B500220F49104802F058FAF4
:1018D80070B90F490D4802F06AFA60B90D490B4812
:1018E80002F034FF50B9094802F068FA48B908BD57
:1018F800FFF718FAEDE7FFF715FAEFE7FFF712FA27
:10190800F1E7FFF70FFAF2E700000020B80A00201D
:101918006C00002050000020022805D8DFE800F005
:1019280005040200012070470220704702680E4B30
:101938009A4200D0704700B583B003F5DA33DA690C
:1019480042F40002DA61DB6903F400030193019BAE
:1019580000221146142002F097F9142002F0C8F969
:1019680003B05DF804FB00BF005C004008B500F25E
:101978002C41D0F85C0402F03BFA08BD08B500EB36
:101988004113D3F83C22D0F85C0402F05FFA08BD9A
:1019980008B500EB4113DA6BD0F85C0402F08CFA5E
:1019A80008BD08B5D0F85C0402F010FB08BD10B5FE
:1019B80004468368022B09D10121D4F85C0402F0A3
:1019C800F3FAD4F85C0402F0D0FA10BDFFF7AAF9D4
:1019D800F2E7000010B50446D0F85C0402F0E7FA1C
:1019E800A36923B1024A136943F00603136110BDCA
:1019F80000ED00E008B5D0F85C0402F0E1FA08BD9B
:101A080010B504461D48C0F85C44C4F820021C4BBD
:101A18000360082343600223836000238361C3615A
:101A2800036200F093F930BB182300221146D4F862
:101A3800200200F0E6FD582300228021D4F820027D
:101A480000F0DFFDC02300228121D4F8200200F03D
:101A5800D8FD4FF4887300220121D4F8200200F049
:101A6800D0FD4FF4807300228221D4F8200200F0C8
:101A7800C8FD002010BDFFF755F9D5E7DC0C0020A4
:101A8800005C004008B5D0F8200200F0CAF9FFF762
:101A980043FF08BD10B51C4613462246D0F8200265
:101AA80000F0EAF9FFF738FF10BD08B5D0F82002BA
:101AB80000F00BFAFFF730FF08BD08B5D0F8200298
:101AC80000F04AFDFFF728FF08BD08B5D0F820024E
:101AD80000F070FDFFF720FF08BDD0F8203211F0AC
:101AE800800F06D101F07F0103EB411191F82A0222
:101AF800704701F07F0103EB411191F82A0070470C
:101B080008B5D0F8200200F0A3F9FFF705FF08BDDB
:101B180008B5D0F8200200F025FAFFF7FDFE08BD51
:101B280008B5D0F8200200F0F7F9FFF7F5FE08BD78
:101B380008B5D0F8200200F00EFA08BD004870473A
:101B48006C0300207047704712230B8000487047D1
:101B58001C00002004230B80004870473000002040
:101B68000023934216D230B40BE0373401F8134007
:101B780000015C00013400250D550133DBB29342AE
:101B880006D2040F092CF0D8303401F81340EFE7DF
:101B980030BC70477047000038B50A4B18680433EA
:101BA8001C6804331B68C01800D138BD064D0822D4
:101BB800A91CFFF7D5FF042205F112012046FFF703
:101BC800CFFFF2E7E8F7FF1F3400002008B51A231B
:101BD8000B80FFF7E1FF014808BD00BF340000207B
:101BE80008B50A4628B90549054802F062FC0348C9
:101BF80008BD0249024802F05CFCF8E73C110020ED
:101C08007C83000810B5044C0A462146034802F0BC
:101C180050FC204610BD00BF3C110020688300081E
:101C280008B50A4628B90549054802F042FC0348A8
:101C380008BD0249024802F03CFCF8E73C110020CC
:101C48004C83000808B50A4628B90549054802F03A
:101C580030FC034808BD0249024802F02AFCF8E7B4
:101C68003C1100205883000800207047002070476E
:101C780010B5054C0146204602F077FD204602F0DB
:101C880091FD002010BD00BFB80A002010B5064C19
:101C980000220649204602F060FD0549204602F070
:101CA80064FD002010BD00BFB80A002024170020E2
:101CB8003C130020094BD3F81832D3F814320BB177
:101CC8000120704710B50A460146044C204602F030
:101CD80044FD204602F04FFD10BD00BFB80A0020A9
:101CE8007047FEE7FEE7FEE7FEE77047704770477C
:101CF80008B501F0F5FA08BD08B5024800F07CFB0C
:101D080008BD00BFDC0C002082B00E4B9A6942F07F
:101D180001029A619A6902F001020092009ADA6956
:101D280042F08052DA61DB6903F080530193019B32
:101D3800054A536823F0E06343F00073536002B030
:101D4800704700BF0010024000000140002866D024
:101D5800F0B587B0044690F829345BB3032384F8C0
:101D68002934206800F074FC254655F8107B6E462F
:101D78000FCD0FC62B683360231D0ECB384600F0FD
:101D880058FC0021206800F06DFC00230E2B16D8AB
:101D980004EB4312012182F8291082F82830938637
:101DA800002182F82B109163D1639A1C5201A15033
:101DB8000133EBE780F82834FFF7B8FDCEE70023BE
:101DC8000E2B13D804EB4312002182F8291282F853
:101DD8002832938682F82B12C2F83812C2F83C12C5
:101DE80003F112025201A1500133E9E7254655F8E3
:101DF800107B6E460FCD0FC62B683360231D0ECBAC
:101E0800384600F031FC002584F82450012384F87A
:101E18002934206800F03CFF284607B0F0BD0120B7
:101E2800704790F82834012B10D010B504460121D2
:101E380080F82814FFF787FE206800F027FF206845
:101E480000F0FEFB002084F8280410BD0220704733
:101E580090F82834012B0DD010B50446012380F8E2
:101E6800283480F82410006800F00AFF002084F865
:101E7800280410BD0220704738B54DB2002D1CDB78
:101E880001F07F04640104F50A74044401F07F0141
:101E98002170ED0F65702261E37090F82834012BF2
:101EA80011D00546012380F828342146006800F047
:101EB800F1FB002085F8280438BD01F07F04640197
:101EC80028340444E2E70220F6E74AB2002A1BDB82
:101ED80001F07F035B0103F50A73034401F07F01FE
:101EE8001970D20F5A7090F82824012A12D010B510
:101EF8000446012280F828241946006800F05EFD97
:101F0800002084F8280410BD01F07F035B0128330A
:101F18000344E3E70220704770B501F07F056C01C8
:101F280004F50A7101440444C4F83C2205F1120284
:101F38005201861883500023736084F8293284F88C
:101F4800285225B9006800F0BFFE002070BD006867
:101F580000F0BAFEF9E701F00F01123100EB411170
:101F68008888704770B501F07F056C0104F128017D
:101F780001440444E263AA1C5201861883500023DA
:101F88007360012384F8293084F8285025B9006843
:101F980000F09AFE002070BD006800F095FEF9E799
:101FA80070B582B004460023ADF80630ADF80430B1
:101FB8008DE103889BB223F4E14323F070039BB2C5
:101FC80003802268B2F8503094F8281003EBC1035C
:101FD800023302EB4303D3F80034C3F30903636409
:101FE800E26B1344E36300212046FFF7D1FC94F829
:101FF8002430002B00F06B81236C002B40F06781AC
:1020080094F82430226843F08003A2F84C3000236F
:1020180084F824305BE1B0F8503094F8282203EBC0
:10202800C203063300EB4303D3F80034C3F30903B8
:10203800C4F84432B4F82C2204F22C4100F0A1FF79
:102048002268138823F070031B051B0D138020469C
:10205800FFF78CFC3BE1B4F82C22D4F83C1200F0DA
:1020680090FFD4F84422D4F83C321344C4F83C32EC
:102078006BE1C1F34F0311F0010F01D001339BB2A3
:102088009B029BB2C2F800347CE130F825309BB249
:10209800ADF80430BDF8043013F4004F35D1BDF865
:1020A800043013F0800F00F01281226832F82530D6
:1020B8009BB223F4E14323F070039BB222F825304E
:1020C80004EB451393F83230002B40F0B2802068BF
:1020D800B0F8503004EB451292F8282003EBC20305
:1020E800023300EB4303D3F80034C3F30903AA1CFB
:1020F80004EB42125360002B00F0C98004EB451139
:102108008A8DC96B00F0CBFDC1E030F8253023F093
:1021180070031B051B0D20F8253004EB451393F8BD
:102128003232D3B92068B0F8503004EB451292F837
:10213800282203EBC203063300EB4303B3F8006421
:10214800C6F3090686B304EB45113346B1F82C22D1
:10215800D1F83C1200F015FF26E0206804EB451387
:1021680093F8282230F8223013F4804F42D0B0F888
:10217800503003EBC203023300EB4303B3F80064AF
:10218800C6F3090666BB226804EB451393F82812C8
:1021980032F8213023F0F0031B051B0D43F40043F4
:1021A80043F0C00322F8213005F112035B01E11866
:1021B8004A6832444A6004EB4511D1F83C22324463
:1021C800C1F83C22E3581BB1D1F838128E4228D20C
:1021D80004EB451393F828122046FFF7CFFB5EE780
:1021E80004EB45113346B1F82E22D1F83C1200F029
:1021F800C8FEC8E7B0F8503003EBC203063300EB63
:102208004303B3F80064C6F30906002EBBD004EB01
:1022180045113346B1F83022D1F83C1200F0B1FE36
:10222800B1E704EB451191F828122046FFF774FE38
:1022380035E7206804EB451393F8282030F822305E
:1022480013F0400F00F0B480B0F8503003EBC20335
:10225800023300EB4303D3F80034C3F30903AA1C89
:1022680004EB42125360002B40F09B80226804EB81
:10227800451393F8281032F8213023F0F0031B059A
:102288001B0D43F4404343F0800322F821302268B9
:10229800B2F8503004EB451090F8281003EBC10356
:1022A800023302EB4303D3F80024C2F30902AB1C48
:1022B8005B01E1184A60C16B0A44C263E358002B12
:1022C80040F08F8090F828102046FFF761FB2068C7
:1022D800B0F844309BB2ADF8063013F4004F00F06C
:1022E8008880BDF8065015F00F057FF4CEAEBDF816
:1022F800063013F0100F3FF45CAE03889BB2ADF8C4
:102308000430BDF8043013F4006F7FF484AEBDF8D8
:10231800043013F4004FDAD0038823F070031B0550
:102328001B0D03802068B0F8503094F8282203EB86
:10233800C203063300EB4303D3F80034C3F30903A5
:10234800C4F84432002B7FF486AE00212046FFF704
:1023580015FB2368B3F85020063203EB4202D4F889
:1023680038123E297FF685AEC1F34F1311F01F0FC7
:1023780001D1013B9BB26FEAC3636FEA53439BB23F
:10238800C2F80034226813889BB223F4804323F0F8
:10239800700383F4405343F4004343F080031380F5
:1023A80095E704EB4511CA8DC96B00F078FC5DE731
:1023B800B0F8503003EBC203063300EB4303D3F805
:1023C8000034C3F30903AA1C04EB42125360002B28
:1023D8003FF44CAF04EB45110A8EC96B00F05FFC6B
:1023E80044E704EB451595F828102046FFF7BAFD99
:1023F8006DE7002002B070BD10B50446006800F01B
:1024080049FC10F4004F45D1206800F043FC10F45B
:10241800806F43D1206800F03DFC10F4804F08D055
:102428002268B2F844309BB223F480439BB2A2F8EE
:102438004430206800F02EFC10F4005F08D02268B9
:10244800B2F844309BB223F400539BB2A2F8443054
:10245800206800F01FFC10F4805F30D1206800F085
:1024680019FC10F4006F49D1206800F013FC10F437
:10247800007F64D1206800F00DFC10F4807F08D044
:102488002268B2F844309BB223F480739BB2A2F85E
:10249800443010BD2046FFF783FDB5E72268B2F847
:1024A80044309BB223F480639BB2A2F844302046A8
:1024B800FFF77DFA00212046FFF7CAFCAAE7226849
:1024C800B2F840309BB223F004039BB2A2F840302C
:1024D8002268B2F840309BB223F008039BB2A2F8FE
:1024E80040302046FFF786FA2268B2F844309BB2A3
:1024F80023F480539BB2A2F84430AFE72268B2F8C5
:10250800403043F00803A2F840302268B2F8443063
:102518009BB223F400639BB2A2F844302268B2F85D
:10252800403043F00403A2F84030206800F0B2FBCA
:1025380010F4805F98D12046FFF74CFA94E72268A0
:10254800B2F844309BB223F400739BB2A2F8443033
:102558002046FFF726FA8DE738B54AB2002A1BDB7A
:102568004B0103F50A73034401249C7001F07F05B5
:102578001D70D20F5A7090F82824A24218D0044631
:10258800012280F828241946006800F0F9FA4DB1B4
:10259800002084F8280438BD01F07F035B0128334C
:1025A8000344E1E704F22C41206800F076FBEFE7F2
:1025B8000220F0E710B54AB2002A1ADB4B0103F5F6
:1025C8000A73034400249C7001F07F011970D20F34
:1025D8005A7090F82824012A11D00446012280F864
:1025E80028241946006800F002FB002084F828041B
:1025F80010BD01F07F035B0128330344E2E70220AA
:10260800F6E711F0800F09D001F07F014901283168
:10261800014442B98A728B8000207047490101F554
:102628000A710144F5E701228A72CB801B0C0B81E9
:10263800F2E784B001A880E80E00002004B07047DB
:10264800B0F8403043F43F43A0F8403000207047D2
:10265800B0F8403023F474535B045B0CA0F84030AE
:10266800002070470020704784B038B505AC84E876
:102678000E000123A0F840300024A0F84040A0F844
:102688004440A0F85040FFF7DBFF2046BDE8384043
:1026980004B0704710B4CB78032B0FD8DFE803F0F1
:1026A800026D54600A7830F822309BB223F4EC4370
:1026B80023F0700343F4007320F822300A7830F8CE
:1026C800223023F0F0031B051B0D134343F4004392
:1026D80043F0800320F822308B7A002B40F0AF8043
:1026E8004B78002B56D08A885208B0F850300C78B6
:1026F80003EBC40300EB43035200C3F800240A7839
:1027080030F8223013F0400F0BD030F8223023F08D
:10271800F0031B051B0D43F4004343F0C00320F8EE
:1027280022300A7830F822309BB223F4E04323F0B9
:10273800400383F0200343F4004343F0800320F870
:102748002230002010BC70470A7830F822309BB243
:1027580023F4EC4323F070039BB220F82230ADE75A
:102768000A7830F822309BB223F4EC4323F070034C
:1027780043F4C06320F82230A0E70A7830F822300A
:102788009BB223F4EC4323F0700343F4806320F8F6
:10279800223093E78A885208B0F850300C7803EB5F
:1027A800C403043300EB43035200C3F80024B0F819
:1027B80050300A7803EBC203063300EB43030C697D
:1027C8003E2C30D9C4F34F1214F01F0F01D1013A37
:1027D80092B26FEAC2626FEA524292B2C3F8002420
:1027E8000A7830F8223013F4804F0BD030F82230BA
:1027F80023F0F0031B051B0D43F4404343F0800313
:1028080020F822300A7830F822309BB223F4804333
:1028180023F0700383F4405343F4004343F08003F0
:1028280020F822308DE7C4F34F0214F0010F01D0D5
:10283800013292B2920292B2C3F80024D0E70A7829
:1028480030F8223023F4F8731B051B0D43F40143C1
:1028580043F0800320F82230CA885208B0F850307C
:102868000C7803EBC40300EB43035200C3F80024C5
:102878000A895208B0F850300C7803EBC4030433CB
:1028880000EB43035200C3F800244B78002B4BD1D4
:102898000A7830F8223013F4804F0BD030F8223009
:1028A80023F0F0031B051B0D43F4404343F0800362
:1028B80020F822300A7830F8223013F0400F0BD07D
:1028C80030F8223023F0F0031B051B0D43F40043BE
:1028D80043F0C00320F822300A7830F8223023F081
:1028E800F0031B051B0D43F4004343F0C00320F81D
:1028F80022300A7830F822309BB223F4804323F048
:10290800700383F4405348F28004234320F82230B4
:102918000A7830F822309BB223F4E04323F04003D6
:10292800234320F822300CE70A7830F8223013F4D9
:10293800804F0BD030F8223023F0F0031B051B0D1D
:1029480043F4404343F0800320F822300A7830F8FB
:10295800223013F0400F0BD030F8223023F0F00370
:102968001B051B0D43F4004343F0C00320F822303D
:102978000A7830F8223023F0F0031B051B0D43F4CE
:10298800404343F0800320F822300B7830F82320AE
:1029980092B222F4E04222F0400248F2800422433C
:1029A80020F823200A7830F822309BB223F48043A1
:1029B80023F07003234320F82230C2E68B7A002BE1
:1029C80044D14B780BB30A7830F8223013F0400F1B
:1029D8000BD030F8223023F0F0031B051B0D43F415
:1029E800004343F0C00320F822300A7830F8223040
:1029F8009BB223F4E04323F0400343F4004343F045
:102A0800800320F82230002070470A7830F82230FE
:102A180013F4804F0BD030F8223023F0F0031B055D
:102A28001B0D43F4404343F0800320F822300A781A
:102A380030F822309BB223F4804323F0700343F430
:102A4800004343F0800320F82230DCE710B44B78D1
:102A5800002B4BD10A7830F8223013F4804F0BD07A
:102A680030F8223023F0F0031B051B0D43F44043DC
:102A780043F0800320F822300A7830F8223013F02F
:102A8800400F0BD030F8223023F0F0031B051B0D4C
:102A980043F4004343F0C00320F822300A7830F8AA
:102AA800223023F0F0031B051B0D43F4004343F0D1
:102AB800C00320F822300B7830F8232092B222F499
:102AC800804222F0700248F28004224320F823203A
:102AD8000A7830F822309BB223F4E04323F0400315
:102AE800234320F82230002010BC70470A7830F8C1
:102AF800223013F4804F0BD030F8223023F0F0034B
:102B08001B051B0D43F4404343F0800320F822309B
:102B18000A7830F8223013F0400F0BD030F822300A
:102B280023F0F0031B051B0D43F4004343F0C003DF
:102B380020F822300A7830F8223023F0F0031B0501
:102B48001B0D43F4404343F0800320F822300B78F8
:102B580030F8232092B222F4E04222F0400248F2F8
:102B68008004224320F823200A7830F822309BB2D0
:102B780023F4804323F07003234320F82230B2E784
:102B88000A7892B930F822309BB223F4804323F0BC
:102B9800400383F4805383F0100343F4004343F06D
:102BA800800320F82230002070474B787BB130F842
:102BB80022309BB223F4E04323F0400383F0100358
:102BC80043F4004343F0800320F82230EBE730F869
:102BD80022309BB223F4804323F0700383F48053A4
:102BE80043F4004343F0800320F82230DBE74B78BE
:102BF8001BB30A7830F8223013F0400F0BD030F8AE
:102C0800223023F0F0031B051B0D43F4004343F06F
:102C1800C00320F822300A7830F822309BB223F41F
:102C2800E04323F0400383F0300343F4004343F0D0
:102C3800800320F82230002070470A7830F82230CC
:102C480013F4804F0BD030F8223023F0F0031B052B
:102C58001B0D43F4404343F0800320F822300A78E8
:102C680030F822309BB223F4804323F0700383F4BE
:102C7800405343F4004343F0800320F82230DAE75E
:102C880011B98023A0F84C3000207047002070470D
:102C980000207047B0F844007047002070470133A7
:102CA8005B1000EB420202F5806263B110B40C784D
:102CB800487844EA002422F8044B0231013B002BF7
:102CC800F5D110BC70477047F8B58A694D78012D69
:102CD80034D00B69934280F0EA80D21A8A618A7AEA
:102CE800002A40F0F480B0F850200C7802EBC402BF
:102CF800063200EB42023E2B40F2DD80C3F34F1454
:102D080013F01F0F01D1013CA4B26FEAC4646FEA4B
:102D18005444A4B2C2F800440A7830F822309BB276
:102D280023F4804323F0700383F4405343F40043B7
:102D380043F0800320F822300020F8BD0F69974245
:102D480025D2D21B8A610E4604468B7A1BB30B78B8
:102D580030F8232012F0400F69D0002D37D1B0F899
:102D6800502002EBC303063300EB43033E2F22D966
:102D7800C7F34F1217F01F0F01D1013A92B26FEA51
:102D8800C2626FEA524292B2C3F8002428E00023DC
:102D98008B611746D7E7BBB28A884969FFF77FFF7F
:102DA800B4F85030327803EBC203023304EB430328
:102DB800C3F800742AE0C7F34F0217F0010F01D0DF
:102DC800013292B2920292B2C3F8002408E0B0F83D
:102DD800502002EBC303023300EB4303C3F8007433
:102DE8003289BBB271692046FFF759FF7378002B0F
:102DF8004DD1327834F8223023F0F0031B051B0D37
:102E080043F4004343F0C00324F82230327834F806
:102E180022309BB223F4E04323F0400383F03003D5
:102E280043F4004343F0800324F8223084E71DBBB9
:102E3800B0F8502002EBC303023300EB43033E2FEC
:102E48000ED9C7F34F1217F01F0F01D1013A92B2F2
:102E58006FEAC2626FEA524292B2C3F8002414E0E9
:102E6800C7F34F0217F0010F01D0013292B292025C
:102E780092B2C3F8002408E0B0F8502002EBC30374
:102E8800023300EB4303C3F80074F288A9E7012B6F
:102E9800BCD1327834F8223023F0F0031B051B0D27
:102EA80043F4404343F0800324F82230AEE7002384
:102EB8008B61134613E7C3F34F0413F0010F01D0DE
:102EC8000134A4B2A402A4B2C2F8004424E7BDB9F4
:102ED800B0F850200C7802EBC402023200EB420238
:102EE8003E2B28D9C3F34F1413F01F0F01D1013C17
:102EF800A4B26FEAC4646FEA5444A4B2C2F80044AE
:102F08004A7882BBB0F850200C7802EBC402063233
:102F180000EB42023E2B1AD9C3F34F1413F01F0FD4
:102F280001D1013CA4B26FEAC4646FEA5444A4B26C
:102F3800C2F80044F0E6C3F34F0413F0010F01D0C8
:102F48000134A4B2A402A4B2C2F80044D8E7C3F37F
:102F58004F0413F0010F01D00134A4B2A402A4B2AB
:102F6800C2F80044D8E6012A7FF4D6AEB0F8502063
:102F78000C7802EBC402023200EB4202C2F80034C1
:102F8800CAE601335B1000EB420202F580622BB106
:102F980052F8040B21F8020B013BF8E77047F8B52B
:102FA80005460F4616461C463BE02CB100F0A4F936
:102FB800069BC01AA04234D32A68536823F0E00362
:102FC80053606B68B3F5827F0BD0AB6AB3F5005FD3
:102FD80014D0012385F85130002385F850300320A0
:102FE80027E0AB68B3F5004F02D0B3F5806FECD1A2
:102FF8002A68136823F040031360E6E72A68136819
:1030080023F400531B041B0C13602A68136843F451
:1030180000531360DDE70123B34209D0B4F1FF3F49
:10302800C3D12B689B6837EA0303F4D00023F3E786
:103038000020F8BD10B582B0044600920B4600226D
:103048008021FFF7ACFF034610B9184602B010BD47
:10305800636D43F0200363650323F6E700283BD044
:1030680010B504460023836290F85130002B2ED00F
:10307800022384F851302268136823F04003136058
:103088006368A2681343E2681343226913436269C1
:103098001343A26902F400721343E2691343226ADC
:1030A8001343A16A22680B431360638B03F0040384
:1030B800616A22680B4353602268D36923F4006372
:1030C800D36100206065012384F8513010BD80F879
:1030D8005030FEF7C5FBCBE7012070472DE9F043E0
:1030E80085B01D4690F85030012B00F0BF80044693
:1030F8000E469146012380F8503000F0FDF88046D6
:1031080094F85170FFB2012F40F0A580002E00F016
:10311800A380B9F1000F00F09F80032384F8513099
:10312800002363652663A4F83490A4F83690A3635B
:10313800A387E38763642364A368B3F5004F1BD0B8
:1031480023681A6812F0400F03D11A6842F040024F
:103158001A60E368B3F5006F14D063681BB1E38E9F
:103168009BB2012B3DD1236816F8012B1A73E38E0D
:10317800013B9BB2E38634E02268136843F4804342
:103188001360DDE763681BB1E38E9BB2012B0CD1A2
:10319800236836F8022BDA60E38E013B9BB2E386A4
:1031A80003E0C5B1B5F1FF3F0FD1E38E9BB283B306
:1031B80023689A6812F0020FF3D036F8022BDA600F
:1031C800E38E013B9BB2E386EFE700F095F8A0EBB6
:1031D8000800A842E9D303273EE0C5B1B5F1FF3F97
:1031E8000FD1E38E9BB2A3B123689A6812F0020F45
:1031F800F3D016F8012B1A73E38E013B9BB2E386DA
:10320800EFE700F079F8A0EB0800A842E9D303271C
:1032180022E0CDF800802B46012202212046FFF74C
:10322800BEFE08B1032717E0424629462046FFF7AD
:1032380001FF034660B9A26832B903922268D168D7
:10324800039192680392039A626D2AB91F4603E0BC
:103258002023636500E00227012384F8513000230E
:1032680084F85030384605B0BDE8F0830227F9E706
:1032780010B504460E4B18784FF47A73B3FBF0F38D
:103288000C4A1068B0FBF3F000F03EFD68B90F2C53
:1032980001D901200AE0002221464FF0FF3000F05A
:1032A800F3FC054B1C60002000E0012010BD00BFAE
:1032B80060000020680000206400002008B5074A6C
:1032C800136843F010031360032000F0CBFC0020C8
:1032D800FFF7CEFFFEF718FD002008BD00200240D2
:1032E800034A1168034B1B780B441360704700BFF7
:1032F8000C1B002060000020014B1868704700BFBD
:103308000C1B002038B50446FFF7F6FF0546B4F15C
:10331800FF3F02D0044B1B781C44FFF7EDFF401B16
:10332800A042FAD338BD00BF6000002082B0084B2D
:103338001B68084AA2FB03235B0A00FB03F0019009
:1033480000BF019B5A1E0192002BF9D102B07047B1
:1033580068000020D34D621070B582B0044603683F
:1033680013F0010F2CD0AB4B5B6803F00C03042B5C
:103378001DD0A84B5B6803F00C03082B12D06368C0
:10338800B3F5803F41D0002B55D103F1804303F5BD
:1033980004331A6822F480321A601A6822F48022F0
:1033A8001A6037E09B4B5B6813F4803FE7D0994B7A
:1033B8001B6813F4003F03D06368002B00F0AE8154
:1033C800236813F0020F75D0924B5B6813F00C0F53
:1033D8005FD0904B5B6803F00C03082B54D0236933
:1033E800002B00F089808C4B01221A60FFF784FFC4
:1033F8000546884B1B6813F0020F74D1FFF77CFF5A
:10340800401B0228F5D903208DE1824A136843F452
:1034180080331360636843B3FFF76EFF05467D4B47
:103428001B6813F4003FCBD1FFF766FF401B6428ED
:10343800F5D9032077E1B3F5A02F09D0754B1A68A9
:1034480022F480321A601A6822F480221A60E1E7B6
:1034580003F18043A3F53C331A6842F480221A60D2
:103468001A6842F480321A60D4E7FFF745FF054630
:10347800684B1B6813F4003FA2D0FFF73DFF401BC9
:103488006428F5D903204EE1624B5B6813F4803F52
:10349800A5D1604B1B6813F0020F03D02369012BE1
:1034A80040F03E815B4A136823F0F803616943EA00
:1034B800C1031360236813F0080F32D0A369002BEF
:1034C8005BD0564B01221A60FFF716FF0546514B99
:1034D8005B6A13F0020F21D1FFF70EFF401B022891
:1034E800F5D903201FE14B4A136823F0F8036169FB
:1034F80043EAC1031360DDE7474B00221A60FFF778
:10350800FBFE0546434B1B6813F0020FD2D0FFF7B2
:10351800F3FE401B0228F5D9032004E10120FFF740
:1035280005FF236813F0040F00F09880394BDB691E
:1035380013F0805F33D1374BDA6942F08052DA6199
:10354800DB6903F080530193019B0125344B1B6811
:1035580013F4807F25D0E368012B36D0002B4CD1A3
:1035680003F1804303F504331A6A22F001021A6258
:103578001A6A22F004021A622CE0284B00221A6010
:10358800FFF7BAFE0546234B5B6A13F0020FC8D05B
:10359800FFF7B2FE401B0228F5D90320C3E000253F
:1035A800D4E71F4A136843F480731360FFF7A4FE3F
:1035B80006461B4B1B6813F4807FCCD1FFF79CFE9B
:1035C800801B6428F5D90320ADE0124A136A43F042
:1035D80001031362E3687BB3FFF78EFE06460D4BCB
:1035E8001B6A13F0020F38D1FFF786FE801B41F2E9
:1035F80088339842F3D9032095E0052B12D0054B68
:103608001A6A22F001021A621A6A22F004021A6285
:10361800E0E700BF0010024000004242800442423E
:1036280000700040424B1A6A42F004021A621A6A99
:1036380042F001021A62CDE7FFF75EFE06463C4BF8
:103648001B6A13F0020F08D0FFF756FE801B41F2E9
:1036580088339842F3D9032065E0E5B9E369002B84
:1036680060D0334A526802F00C02082A5DD0022B5F
:1036780017D0304B00221A60FFF73EFE04462C4B51
:103688001B6813F0007F47D0FFF736FE001B0228A7
:10369800F5D9032047E0264AD36923F08053D36144
:1036A800DCE7244B00221A60FFF726FE0546204B74
:1036B8001B6813F0007F06D0FFF71EFE401B022890
:1036C800F5D903202FE0236AB3F5803F1AD01849B3
:1036D8004B6823F47413226A606A024313434B60F5
:1036E800144B01221A60FFF707FE0446104B1B68B3
:1036F80013F0007F0ED1FFF7FFFD001B0228F5D95C
:10370800032010E00A4A536823F40033A1680B43EE
:103718005360DCE7002006E0002004E0012002E01E
:10372800012000E0002002B070BD0120FBE700BFCF
:10373800001002406000424210B487B0164C94E872
:103748000F000DF1180C0CE90F00238AADF80430B6
:10375800124B5B6803F00C02082A03D0104807B02C
:1037680010BC7047C3F38342624412F8102C13F460
:10377800803F0CD0094B5B68C3F34043634413F8A4
:10378800143C074800FB02F0B0FBF3F0E7E70548FC
:1037980000FB02F0E3E700BFC87A0008001002400F
:1037A80000127A0000093D00624B1B6803F0070312
:1037B8008B420BD25F4A136823F007030B43136055
:1037C800136803F007038B4240F0AE8070B50368BE
:1037D80013F0020F17D013F0040F04D0564A5368A1
:1037E80043F4E0635360036813F0080F04D0524AAF
:1037F800536843F4605353604F4A536823F0F0030F
:103808008468234353600D460446036813F0010F90
:1038180052D04368012B23D0022B28D0464A126885
:1038280012F0020F00F0828043494A6822F0030236
:1038380013434B60FFF760FD06466368012B1DD0FC
:10384800022B2AD03C4B5B6813F00C0F34D0FFF7E7
:1038580053FD801B41F288339842F3D9032062E07C
:10386800354A126812F4003FDED101205BE0324A8B
:10387800126812F0007FD7D1012054E02E4B5B680C
:1038880003F00C03042B17D0FFF736FD801B41F221
:1038980088339842F2D9032045E0274B5B6803F050
:1038A8000C03082B08D0FFF727FD801B41F2883353
:1038B8009842F2D9032036E01E4B1B6803F0070339
:1038C800AB420AD91B4A136823F007032B43136042
:1038D800136803F00703AB422AD1236813F0040FDF
:1038E80006D0154A536823F4E063E1680B4353603C
:1038F800236813F0080F07D00F4A536823F4605366
:10390800216943EAC1035360FFF716FF0A4B5B685E
:10391800C3F30313094AD35CD840094B186000204D
:10392800FFF7A6FC002070BD012070470120FAE7D0
:103938000120F8E7002002400010024094830008AC
:103948006800002070B582B00446036813F0010FC8
:1039580034D03E4BDB6913F0805F48D13B4BDA69CA
:1039680042F08052DA61DB6903F080530193019BD6
:103978000125374B1B6813F4807F3AD0334B1B6A01
:1039880013F4407311D0626802F440729A420CD06A
:103998002E4A136A23F440702E4901260E60002631
:1039A8000E60106213F0010F37D1284A136A23F40E
:1039B800407361680B431362002D3FD1236813F0F5
:1039C800020F06D0214A536823F44043A1680B43F1
:1039D8005360236813F0100F35D01C4A536823F442
:1039E800800361690B435360002002B070BD00255D
:1039F800BFE7174A136843F480731360FFF77CFC32
:103A08000646134B1B6813F4807FB7D1FFF774FC8D
:103A1800801B6428F5D90320E7E7FFF76DFC06460D
:103A28000A4B1B6A13F0020FBFD1FFF765FC801B1E
:103A380041F288339842F3D90320D6E7D36923F0BB
:103A48008053D361BAE70020CFE700BF00100240DF
:103A58000070004040044242F0B482B0002635466F
:103A6800A6E0002B5ED0012B10D1CE680EE06E4F81
:103A7800BB4257D04ED96D4FBB4253D007F5803764
:103A8800BB424FD0A7F58017BB424BD0FF2A5DD869
:103A98008446FF2A5DD8AC00DCF800300F27A74029
:103AA80023EA070306FA04F42343CCF800304B68F2
:103AB80013F0805F7BD05E4B9C6944F001049C61ED
:103AC8009B6903F001030193019BAC08A71C594BA8
:103AD80053F827C005F003039F000F23BB402CEACF
:103AE800030C554B98423AD003F58063984278D03E
:103AF80003F58063984276D003F58063984274D0CA
:103B080003F58063984272D003F58063984224D00D
:103B1800062325E0A7F58017BB4203D007F58037B9
:103B2800BB42B3D18B687BB1012B08D04461082616
:103B3800ACE7CE680836A9E7CE680C36A6E704617C
:103B48000826A3E70026A1E704269FE700F1040C56
:103B58009FE7A5F10804A4009EE7052300E00023E1
:103B6800BB4043EA0C030234324F47F824304B6819
:103B780013F4803F3DD0314C2368134323604B68D6
:103B880013F4003F3BD02D4C6368134363604B68CC
:103B980013F4801F39D0294CA3681343A3604B68E2
:103BA80013F4001F37D0254CE3681A43E26001354F
:103BB8000F2D36D80124AC400A6822409442F6D131
:103BC8004B68122BB8D03FF652AF022BB1D07FF61C
:103BD80048AF032BB6D0112B7FF458AFCE6804360C
:103BE80054E70123BCE70223BAE70323B8E7042319
:103BF800B6E7124C236823EA02032360BFE70F4CA1
:103C0800636823EA02036360C1E70C4CA36823EAF4
:103C18000203A360C3E7094CE36823EA0202E260F7
:103C2800C5E702B0F0BC7047000021100000311059
:103C3800001002400000014000080140000401405B
:103C48008368194201D001207047002070470AB1EB
:103C580001617047090401617047C3685940C16038
:103C680070470000074AD36823F4E0631B041B0C69
:103C7800000200F4E060184340F0BF6040F40030F8
:103C8800D060704700ED00E030B4174BDB68C3F339
:103C98000223C3F10704042C28BF04241D1D062D8C
:103CA80001D9033B00E000234FF0FF3505FA04F487
:103CB80021EA0401994005FA03F322EA03031943B0
:103CC800002809DB0901C9B200F1604000F5614034
:103CD80080F8001330BC704700F00F000901C9B22A
:103CE800024B1954F6E700BF00ED00E014ED00E0C8
:103CF80000F01F02400901239340024A42F8203095
:103D0800704700BF00E100E00138B0F1807F0AD2BF
:103D1800064B5860064AF02182F82310002098606C
:103D280007221A6070470120704700BF10E000E0CA
:103D380000ED00E00F4B1A6842F001021A60596862
:103D48000D4A0A405A601A6822F0847222F48032BE
:103D58001A601A6822F480221A605A6822F4FE0255
:103D68005A604FF41F029A60044B4FF000629A6049
:103D7800704700BF001002400000FFF800ED00E0AF
:103D880098B108B50346D0F8140210B10020C3F862
:103D9800140209B1C3F810121846012380F8FC3147
:103DA8000270FDF72DFE002008BD0220704719B1F2
:103DB800C0F81412002070470220704708B5FDF7BC
:103DC80061FE002008BD08B5D0F814323BB11B686D
:103DD8009847034608B9184608BD0223FBE70223A3
:103DE800F9E708B5D0F814325B689847002008BD99
:103DF80038B5044600F50275284600F00EF901238F
:103E0800C4F8F431B4F80E32C4F8F83194F8081252
:103E180001F01F03012B0FD05AB23AB1022B10D078
:103E280001F080012046FDF748FE03E029462046C0
:103E380000F06DFA002038BD2946204600F08BFAC4
:103E4800F8E72946204600F0A1FAF3E710B5044642
:103E580029BB1346D0F8F421032A01D0002010BD55
:103E6800D0F80C11D0F8102191420BD8D0F81432A8
:103E78001B691BB190F8FC21032A0ED0204600F0E4
:103E880060FBEBE7891AC0F80C118A4228BF0A4682
:103E980092B2194600F04DFBE0E79847EEE70A4674
:103EA800D0F814329B69002BD8D090F8FC11032964
:103EB800D4D111469847D1E710B50446002947D117
:103EC8001346D0F8F421022A05D094F80032012BC9
:103ED8003AD0002010BDC169026A914217D88169A1
:103EE800B1FBF2F302FB13132BB98A4203D8D0F8C3
:103EF800F831994218D3D4F81432DB681BB194F81E
:103F0800FC21032A1DD0204600F026FBDDE78A1A93
:103F1800C26192B2194600F0F5FA00231A46194612
:103F28002046FDF7FDFDD0E70022114600F0EAFA31
:103F38000021C4F8F8110B460A462046FDF7F0FDAB
:103F4800C3E720469847DEE7002384F80032C0E73D
:103F58000A46D0F814325B69002BBAD090F8FC11ED
:103F68000329B6D111469847B3E738B5044640232C
:103F780000221146FDF78EFD4025C4F810512B464E
:103F8800002280212046FDF785FD2562012384F863
:103F9800FC31D4F818322BB1D4F814325B6821798B
:103FA80020469847002038BD01740020704790F8DB
:103FB800FC3180F8FD31042380F8FC310020704783
:103FC80090F8FD3180F8FC310020704708B590F872
:103FD800FC31032B01D0002008BDD0F81432DB6976
:103FE800002BF8D09847F6E7002302781AB101337E
:103FF800DBB20130F9E7184670474B88012B00D037
:10400800704710B50446C0F80432D0F814329B68E3
:104018009847204600F095FA10BD0B7803704B784E
:1040280043708B78CA7803EB022343800B794A7973
:1040380003EB022383808B79CA7903EB0223C380C5
:10404800704710B504468021FDF737FD0021204652
:10405800FDF733FD10BD30B583B004460D464A88E0
:10406800130A013B062B00F28180DFE803F00413FA
:10407800277F7F637000D0F810321B680DF10601AE
:10408800007C9847BDF8062012B1EB88002B71D14F
:1040980003B030BD037C43B9D0F814329B6A0DF1EC
:1040A8000600984702234370ECE7D0F81432DB6A25
:1040B8000DF10600984702234370E3E7D2B2052AC0
:1040C80034D8DFE802F0030B131B232BD0F810328F
:1040D8005B680DF10601007C9847D3E7D0F81032F1
:1040E8009B680DF10601007C9847CBE7D0F81032A9
:1040F800DB680DF10601007C9847C3E7D0F8103261
:104108001B690DF10601007C9847BBE7D0F8103217
:104118005B690DF10601007C9847B3E7D0F81032CF
:104128009B690DF10601007C9847ABE72946FFF72C
:1041380088FFADE7037C33B9D0F814325B6B0DF11F
:10414800060098479EE72946FFF77BFFA0E7037C18
:1041580043B9D0F814321B6B0DF1060098470723BA
:1041680043708FE72946FFF76CFF91E72946FFF771
:1041780068FF8DE79A4228BF1A46ADF80620014627
:10418800204600F0B2F983E738B504468B88E3B9D6
:10419800CB88D3B98D7805F07F0590F8FC31032BD7
:1041A8000CD080F8FE512946FDF7AAFC204600F005
:1041B800C8F935B1022384F8FC3109E0FFF741FF63
:1041C80006E0012384F8FC3102E02046FFF739FFBE
:1041D80038BD000038B504460D468978254B19705E
:1041E800012909D890F8FC31022B09D0032B1CD0E7
:1041F8002946FFF726FF02E02946FFF722FF38BDD0
:1042080081B14160032380F8FC31FFF7DCFD02280F
:1042180003D0204600F095F9F1E729462046FFF73C
:1042280010FFECE700F08DF9E9E789B1436899429E
:104238001DD0D9B2FFF7D5FD0E4B19786160204625
:10424800FFF7C1FD02280DD0204600F07AF9D6E725
:10425800022380F8FC314160FFF7C3FD204600F0DF
:1042680070F9CCE729462046FFF7EBFEC7E700F0D8
:1042780068F9C4E78C05002008B5CB88012B08D164
:1042880090F8FC31022B07D0032B0DD0FFF7D9FE95
:1042980001E0FFF7D6FE08BD0146002341F8083FBC
:1042A800012200F022F9F6E70122011D00F01DF9B4
:1042B800F1E708B590F8FC31023B012B0CD801233B
:1042C800C360D0F804320BB10323C360022200F1AB
:1042D8000C0100F00AF908BDFFF7B3FEFBE710B5C3
:1042E800044690F8FC31023B012B0DD84B88012B7A
:1042F8000CD10023C0F80432D0F814329B689847D8
:10430800204600F01EF901E0FFF79BFE10BD08B53E
:104318004B78092B1CD8DFE803F012181B151B0972
:10432800051B0F0CFFF797FE002008BDFFF72CFFB9
:10433800FAE7FFF74FFFF7E7FFF79EFFF4E7FFF70E
:10434800B8FFF1E7FFF759FEEEE7FFF7C8FFEBE725
:10435800FFF777FEE8E738B504460D4690F8FC31DC
:10436800032B0FD10B79012B09D8D0F814329B6895
:104378009847EB8843B9204600F0E3F804E0FFF7DC
:1043880060FE01E0FFF75DFE002038BD38B5054648
:104398000C468A880B7803F06003202B13D0D1B227
:1043A8006378012B30D058B2002851D0032B0ED19E
:1043B80095F8FC31022B0CD0032B12D0214628464D
:1043C800FFF73FFE03E0D0F814329B6898470020BF
:1043D80038BD0029FBD08029F9D02846FDF76DFBB0
:1043E800F5E7638813B909B1802909D1D5F81432E2
:1043F8009B68214628469847284600F0A2F8E6E739
:104408002846FDF75AFBF1E790F8FC31022B05D05E
:10441800032B0AD02146FFF714FED8E70029D6D08F
:104428008029D4D0FDF749FBD1E76388002BCED192
:1044380011F07F0F03D1284600F083F8C7E7FDF796
:1044480044FBD5F814329B68214628469847F2E782
:1044580095F8FC31022B06D0032B0BD021462846B9
:10446800FFF7EFFDB3E711F07F0FB0D02846FDF757
:1044780024FBACE712F0800F11D101F07F04103457
:1044880005EB041404342846FDF727FB70B101231B
:10449800236002222146284600F027F897E701F01A
:1044A8007F04013405EB04140434ECE70023236093
:1044B800EFE7C8B170B50D4616460446FFF794FD00
:1044C8000130400080B23080287003236B700223D3
:1044D800217841B101345A1CD2B2E9540233DBB21B
:1044E8000021A954F4E770BD704710B513460222A5
:1044F800C0F8F4218361C3610A460021FDF708FB77
:10450800002010BD08B513460A460021FDF700FB40
:10451800002008BD10B513460322C0F8F421C0F8E6
:104528000831C0F80C310A460021FDF7F9FA0020DD
:1045380010BD08B513460A460021FDF7F1FA002020
:1045480008BD08B50423C0F8F43100231A461946FB
:10455800FDF7DEFA002008BD08B50523C0F8F431E0
:1045680000231A461946FDF7DBFA002008BDD0F8EB
:1045780018321BB10020C3F814027047022070479C
:1045880010B5D0F81842D0F81C325BB194F800028C
:10459800FF2807D09B6894F8012221469847FF23FB
:1045A80084F80032002010BD432303800048704780
:1045B800A40000204323038000487047E80000203F
:1045C8004323038000487047380100200A230380F2
:1045D800004870472C01002038B50446D0F818521E
:1045E800FDF7A6FAC5F80C02D4F818324BB1D4F886
:1045F8001C32DB6805F50371D5F8040298470020E2
:1046080038BD0220FCE7000070B505460C46D0F81E
:1046180018620B7813F0600224D0202A25D1CA88AA
:10462800CAB113F0800F0BD0D0F81C329B6831460A
:1046380060789847E28831462846FFF756FF14E02D
:104648004B7886F80032CB8886F80132CA88314622
:10465800FFF760FF09E0D0F81C329B680022487819
:10466800984702E04B780A2B01D0002070BD012248
:104678000149FFF73AFFF8E78D05002010B5044619
:104688008121FDF712FA01212046FDF70EFA822159
:104698002046FDF70AFAD4F8183253B1D4F81C3280
:1046A8005B689847D4F81802FDF74CFA0023C4F861
:1046B8001832002010BD70B50446037C7BBB4FF454
:1046C800007302228121FDF7E5F94FF400730222FD
:1046D80001212046FDF7DEF9082303228221204626
:1046E800FDF7D8F94FF40770FDF728FA0546C4F826
:1046F800180248B3D4F81C321B6898470023C5F841
:104708001432C5F81832267CAEB94FF40073D5F8C8
:10471800042201212046FDF703FA304670BD4023EC
:1047280002228121FDF7B6F9402302220121204609
:10473800FDF7B0F9D0E74023D5F80422012120463F
:10474800FDF7EEF90026E8E70126E6E719B1C0F81B
:104758001C120020704702207047D0F81832C3F8A6
:104768000812C3F8102200207047D0F81832C3F896
:10477800041200207047D0F818228AB108B5D2F880
:1047880014320BB1012008BD0123C2F81432B2F86B
:104798001032D2F808228121FDF7BAF90020F2E799
:1047A80002207047D0F8182292B108B5037C43B9AB
:1047B8004FF40073D2F804220121FDF7B1F900206B
:1047C80008BD4023D2F804220121FDF7A9F9F6E734
:1047D800022070472DE9F04F83B007460D469146F9
:1047E8001C46DDF8308090F87DA0CB18561CF6B238
:1047F8000096DBB200F0DDFC68B3BAFA8AFB4FEA38
:104808005B1B802612E087F87DA00023009301231C
:104818004A462946384600F087FC0135EDB276084D
:1048280002D108F101088026013CE4B28CB198F865
:1048380000301E42E7D197F87C30002BEDD187F885
:104848007DB0009301234A462946384600F06CFCA7
:10485800E3E787F87DA003B0BDE8F08F2DE9F047C6
:1048680082B082468846154699469DF828400B9E98
:10487800DF00FFB207EB010C1319DBB200935FFAFC
:104888008CF300F096FC68B164B100963B462A466A
:1048980041465046FFF79EFF4E440135EDB2013CBC
:1048A800E4B2F1E702B0BDE8F0872DE9F04182B04B
:1048B80080460F4615461E469DF8204001EB030C26
:1048C8001319DBB200935FFA8CF300F072FC68B145
:1048D80064B10023009333462A463946404600F027
:1048E80023FC0135EDB2013CE4B2F1E702B0BDE8CA
:1048F800F0812DE9F04F85B083460E46174698465D
:104908009DF83890CD18EDB202EB0904E4B200949A
:104918002B4600F04EFC10B905B0BDE8F08F4FF003
:10492800000ACDF800A043463A463146CDF80CB00F
:10493800584600F0F9FB4FF0010BCDF800B04B469C
:104948003A463146039800F0EFFB691ECDF800B0F7
:104958004B463A46C9B2DDF80CB0584600F0E4FBC5
:10496800621ECDF800A04346D2B23146584600F048
:10497800DBFBD1E710B582B003681B7C446B03FBFB
:1049880001F1C90089B221440091002100F065FEBF
:1049980002B010BD2DE9F041064690F8387090F845
:1049A8003950036893F8118000242A46214630467E
:1049B800FFF7E0FF0134E4B20135EDB2A74201D9B7
:1049C800A845F2D8BDE8F08108B503681A7C90F8CC
:1049D800383002FB03F2D2000021406B00F0E6FE03
:1049E80008BD10B50446FFF7D5FF204600F05BFE72
:1049F80010BD000008230370004870479005002090
:104A080030B585B004460D4600931346084A094957
:104A180000F06CFE0DF10F00FFF7ECFF0095064B60
:104A28009DF80F200146204600F067FC05B030BD18
:104A380025540008E1550008ED510008405C704716
:104A48004218435C507800EB032080B27047012B7A
:104A58000BD010B45CB224B1022B09D0401AC0B2FA
:104A680001E01044C0B210BC70470844C0B270479F
:104A7800801AC0B2F7E7012B0BD010B45CB224B196
:104A8800022B09D01044C0B201E00844C0B210BCE7
:104A98007047801AC0B27047401AC0B2F7E70020CA
:104AA800704738B504460D4600212846FFF7C6FF73
:104AB800207001212846FFF7C1FF607002212846B7
:104AC800FFF7BCFFA07003212846FFF7B7FFE0708F
:104AD80004212846FFF7B2FF207105212846FFF779
:104AE800ADFF607106212846FFF7A8FFA0710721D6
:104AF8002846FFF7A3FFE07108212846FFF79EFF2D
:104B0800207209212846FFF799FF60720A2128467A
:104B1800FFF794FFA0720B212846FFF78FFFE07282
:104B28000C212846FFF78AFF20730D212846FFF73E
:104B380085FF60730E212846FFF780FFA0730F21C1
:104B48002846FFF77BFFE07310212846FFF776FF22
:104B5800207411212846FFF773FF6082132128462D
:104B6800FFF76EFFA08215212846FFF769FFE08254
:104B780038BD70B4847A0668327842FA04F5EAB22D
:104B88006318DBB2072B0AD9C4F10804E4B2721C1B
:104B980002607278A2402A43D2B2083BDBB24FF0DF
:104BA800FF348C40837222EA040070BC704738B529
:104BB800044600F150050165002380F85A3090F84A
:104BC80064102846FFF7D5FF84F8580094F865105C
:104BD8002846FFF7CEFF84F8590094F87D3084F812
:104BE8005C30B3FA83F35B0984F85D3038BD10B5E7
:104BF8000C46FFF7BEFF013CE4B20123A340C01AF4
:104C080040B210BD2DE9F04F89B00546894607929C
:104C180090F956405FFA84FB90F957305FFA83FAAF
:104C28001AE0CDF8149020E095F85C3085F87D30D6
:104C38000097059B02460699284600F075FAB1458B
:104C48003DD3ABEB0404A1445FFA89F90AF1010AE8
:104C58005FFA8AFA4FF0000B95F95840E4B2A4EBDA
:104C68000B06F6B2B145DCD3059695F855804FFA98
:104C78008BF14FFA8AF31A4695F85E703B46039219
:104C8800049195F85400FFF7F6FE06903B46039A08
:104C980004994046FFF7DBFE079B002BC4D195F82B
:104CA8005B30002BCBD195F85D3085F87D300097CF
:104CB800059B02460699284600F036FABFE709EB3D
:104CC8000B0485F85640039B85F8573009B0BDE8BA
:104CD800F08F2DE9F04F85B0044600F15005FFF73D
:104CE80066FF94F9597094F866102846FFF77FFF1D
:104CF800834694F867102846FFF779FF064694F82C
:104D080068102846FFF773FF029094F95880B8F1AD
:104D1800000F59DD5FFA87F94E44F6B2764276B253
:104D280094F85EA053463246CDF80CB0594694F834
:104D38005400FFF7A0FE834684F8540053463246D9
:104D4800039994F85500FFF782FE024684F855004F
:104D5800BAF1030F69D8DFE80AF0023B495C5FFA51
:104D680088F35B44DBB24844C0B200905946204601
:104D780000F01FFA40B3002384F8563084F8573007
:104D880094F862102846FFF7F4FE804694F8631002
:104D98002846FFF7EEFE0646002241462046FFF76A
:104DA80031FF012231462046FFF72CFF012128461A
:104DB800FFF7DFFE0028EFD194F95730BB42DFDB65
:104DC80094F85C3084F87D30029805B0BDE8F08F27
:104DD800ABEB0901C9B201310BF10103DBB25FFA98
:104DE80088F01044C0B25FFA81FBBEE75FFA88F131
:104DF800ABEB0101C9B201310BF10103DBB2A0EB4E
:104E08000906F6B201360132D0B2F2B25FFA81FB7E
:104E1800ABE709EB0B03DBB25FFA88F1411AC9B2C1
:104E280001310132D0B2CAB29FE75B469DE7836C7D
:104E38001733FF2913D8602909D9B0F8742013440F
:104E48005A78DAB11878884207D01344F8E740292D
:104E5800F6D9B0F872201344F2E7981C7047B0F8FE
:104E6800760018440278437853EA022308D099421E
:104E780002D083781844F5E7033070470020704764
:104E88000020704710B5044680F8541080F855206B
:104E98001946FFF7CCFF28B101462046FFF719FF56
:104EA800C0B210BD0020FCE7F8B504460D46164612
:104EB8001F4690F85E30032B07D8DFE803F0020D99
:104EC8001217C36C98470644F6B23B463246294649
:104ED8002046FFF7D7FFF8BDC36C98472D1AEDB2EF
:104EE800F3E7C36C9847361AF6B2EEE7C36C9847F7
:104EF8000544EDB2E9E700002DE9F04104460F460C
:104F080016461D4600F021FA4FF0000804E0074459
:104F1800FFB240445FFA80F86368297820469847D2
:104F28004FF6FF73984222D001354FF6FE73984230
:104F3800F2D00346324639462046FFF7B5FF94F8CB
:104F48005E30032BE5D801A252F823F0174F000872
:104F5800654F00086B4F0008714F00080644F6B211
:104F6800D7E73F1AFFB2D4E7361AF6B2D1E7404680
:104F7800BDE8F08110B5024C4460FFF7BDFF10BDDD
:104F88003D530008836C63B390F96D2080F8792055
:104F980090F96E3080F87A3090F8781009B30129CA
:104FA80012D030B490F96A1090F96C400D19AA42E9
:104FB80004DAC9B2E2B2114480F87910A34201DDE3
:104FC80080F87A4030BC704790F96F108A4201DA55
:104FD80080F8791090F97020934202DD80F87A20E9
:104FE80070477047014BC364704700BFA74A000869
:104FF800836C8B4209D010B5044681646030FFF79A
:1050080050FD2046FFF7BEFF10BD704710B404786E
:105018000B789C4204D994420AD2531EDBB20B701F
:10502800944208D243B1934209D90A70012303E09C
:1050380000240470F4E70023184610BC70470123CD
:10504800FAE770B586B004469DF828508DF80F1021
:105058008DF80E2090F83B2090F83A1005BB9DF88B
:105068000E0090421AD29DF80F2013448DF8173085
:105078000A460DF117010DF10F00FFF7C7FF68B1E0
:105088009DF817309DF80F209B1ADBB2E66A009551
:105098009DF80E209DF80F102046B04706B070BD51
:1050A8009DF80F008842F9D29DF80E100B448DF838
:1050B80017300DF117010DF10E00FFF7A7FF0028BB
:1050C800ECD09DF817309DF80E209B1ADBB2DDE777
:1050D80030B583B09DF8185090F83940A2EBC4025F
:1050E800D2B2012B0AD0022D14D0032D17D005F00F
:1050F80001050095FFF7A5FF03B030BD90F83A40D1
:105108008C42F9D990F83B409442F5D9C46A00958D
:10511800A047F1E7C91AC9B20131C9B2E7E7D21A03
:10512800D2B20132D2B2E2E74BB130B583B0046BF0
:1051380064689DF818500095A04703B030BD7047CB
:105148002DE9F04182B080460D4616461F46CB1821
:10515800541CE4B20094DBB200F02BF810B902B092
:10516800BDE8F081002300933B463246294640467D
:10517800FFF7DAFFF3E780F87D10022902D901234F
:1051880080F87D3070478A4205D2834209D89A4216
:1051980009D901207047834207D99A4207D90120CB
:1051A800704701207047002070470020704700209A
:1051B800704770B504460D461E469DF8103090F8AD
:1051C800441090F84300FFF7DEFF034640B1334632
:1051D8002A4694F8421094F84100FFF7D4FF03469A
:1051E800184670BDF0B49DF810600468257C01F085
:1051F800070780243C41E4B2C90805FB021189B2C3
:10520800426B0A443EBB07E011782143117007E066
:10521800013B13F0FF0323D090F87D100129F3D947
:1052280090F87D10012902D011786140117064084E
:10523800EED101328024EBE711782143117090F808
:105248007D10012902D01178614011702A44013B78
:1052580013F0FF0304D090F87D100129EFD8EBE795
:10526800F0BC704770B490F83830DA0080F83B2012
:1052780001680A7C1F2A00D91F22D20080F83A2030
:1052880090F83950EA00D2B280F83C205E194C7C84
:10529800A64201DD631BDBB2DB00DBB280F83D20F8
:1052A800134480F83E30F02380F83F308B8AF02B8F
:1052B80001D880F83F30CB8A80F8403070BC704706
:1052C80010B50446FFF7CEFF002384F8413094F868
:1052D8003A3084F8423094F83D3084F8433094F8FA
:1052E8003E3084F8443010BD10B582B09DF81040AF
:1052F8000094FFF7EDFE02B010BD70B50446049EA1
:1053080000258564C362416380F8382080F83950ED
:1053180080F85B5080F87C50012380F87D3080F85D
:105328007E300663336898472046FFF75BFE84F8B3
:105338005E5070BD19B10A2904D088B270474FF683
:10534800FF7070474FF6FF707047002380F82330D6
:10535800704710B5046913460A461721A04710BDC7
:1053680000B583B08DF807100DF107020121FFF792
:10537800F0FF03B05DF804FB10B5C46800230A46CB
:105388001521A04710BD10B5C46813460A46172159
:10539800A04710BD10B5C46800231A461821A047BD
:1053A80010BD10B5C46800231A461921A04710BDC6
:1053B80070B582B006460D4609E015292CD322782F
:1053C8008DF80720F46800233046A04702352C46A4
:1053D80014F8011B17290DD0EFD9192915D9FE2961
:1053E8001AD122788DF807202921304600F062F979
:1053F8000235ECE76B788DF807300DF107020121D3
:105408003046FFF7C0FF0235E1E7F56800231A468A
:105418003046A8472546DAE702B070BDF8B506461B
:1054280015461F46A1F11403052B75D8DFE803F0D4
:105438006F0322326F6FF821FFF792FF01222C21B0
:10544800304600F037F905F0F0013046FFF788FFE5
:1054580001222C21304600F02DF9290101F0F0013C
:105468003046FFF77DFF01222C21304600F022F95B
:105478000120F8BDF821FFF773FF05F0F001304671
:10548800FFF76EFF290101F0F0013046FFF768FFD2
:105498000120EEE7FA21FFF763FF01222C213046B5
:1054A80000F008F918E01D4808233C4614F8012BC1
:1054B80002F0F007014601F8027B12014270013B3D
:1054C8002746084613F0FF03EFD1083DEDB2134A13
:1054D80010213046FFF73DFF072DE4D80EE017F8FE
:1054E800014B04F0F0013046FFF73AFF210101F0CB
:1054F800F0013046FFF734FF013DEDB2002DEED14B
:1055080001222C21304600F0D5F80120B1E70469CA
:105518003B462A46A047ACE70020AAE790090020AE
:105528002DE9F04705460B290FD098460F2917D0CB
:105538000A2902D00020BDE8F08700F05FF823496F
:105548002846FFF735FF0120F5E722B92049FFF784
:105558002FFF0120EFE71F49FFF72AFF0120EAE7A5
:105568009F79FF00FFB293F805904FEA59091F2F62
:1055780003D9203FFFB209F108092846FFF70AFFBF
:10558800D8F800603E212846FFF7F6FE002416E012
:10559800391949B261F07F01C9B22846FFF7ECFE1C
:1055A80049F080012846FFF7E7FE98F804A0324644
:1055B80051462846FFF7E7FE56440134E4B2072C6B
:1055C800E6D92846FFF7EDFE0120B4E7AC830008D2
:1055D800C0830008C883000808B5092902D0FFF76E
:1055E8009FFF08BD024900F005F80120F9E700BF58
:1055F800D083000801608B7C8377704738B50446F8
:10560800456900231A462821A847E56800231A4659
:1056180014212046A84701224B21204600F04AF8D1
:1056280023681A792921204600F044F800224B21EA
:10563800204600F03FF823681A792921204600F017
:1056480039F801224B21204600F034F823685A79B2
:105658002921204600F02EF838BD10B582B08DF80B
:1056680005108DF806208DF80430049B009384689B
:105678006B4601220F21A04702B010BD10B5846807
:1056880000231A460921A04710BD10B584680023DD
:105698001A460A21A04710BD10B5846800230A469F
:1056A8000B21A04710BD10B5846800231A461021AD
:1056B800A04710BD10B544690023A04710BD0020C5
:1056C8007047000000230360074A8260C2600261DD
:1056D8004261C37780F8223080F82330FF2380F8B6
:1056E800203080F825307047C7560008F8B50446C2
:1056F8000F4616461D46FFF7E5FFA760E6602561E1
:10570800069B63612046FFF7B9FFF8BD002103E05F
:105718000B4B5B58435004310A480B4B42189A42D2
:10572800F6D30A4A02E0002342F8043B084B9A42A7
:10573800F9D3FEF7FFFA00F015F8FBF777FA704790
:1057480058CB0008000000204C0300204C03002028
:10575800201B0020FEE70000014B1868704700BFBF
:105768007C01002070B500260C4D0D4C641BA41064
:10577800A64209D102F098F900260A4D0A4C641B8A
:10578800A410A64205D170BD55F8043B98470136D0
:10579800EEE755F8043B98470136F2E74ECB000890
:1057A8004ECB000850CB000854CB000803460244F7
:1057B800934200D1704703F8011BF9E7002B2DE94C
:1057C800F0471E46BBBF03F100431E4600232D23AE
:1057D80088B0149F144627F02007129A462F109D70
:1057E800DDF84CA0137004D0452F00D101350223F9
:1057F80000E0032307AA049206AACDE902A2CDE994
:1058080000352246334600F0BFFC472F804602D1C0
:10581800119BDB0722D5462F08EB050911D198F813
:105828000030302B0AD10022002320463146FBF7F6
:1058380023F918B9C5F10105CAF80050DAF80030A3
:1058480099440022002320463146FBF715F908B198
:10585800CDF81C903022079B4B4508D34046079B48
:10586800159AA3EB0803136008B0BDE8F087591C2C
:1058780007911A70EFE7F7B50029B6BF2D232B2340
:10588800494209290270437022DD0DF107031F46C2
:105898000A2691FBF6F206FB1214632904F1300480
:1058A80003F1FF3503F8014C0ADC303205F8012C0E
:1058B800023B821CBB42144605D3201A03B0F0BD3C
:1058C8002B461146E5E713F8011B02F8011BF1E727
:1058D800302319448370041DC170EEE72DE9F04FA1
:1058E80091B00C461A9F93461E46054601F0B2FB3E
:1058F800036818460993FAF793FC00230E933B6854
:105908000A90073323F0070303F1080294F818807C
:10591800D4F800A03A60D3E90023C4E91223D4E9FB
:10592800129727F000430B934FF0FF32A64B4846DF
:105938000B99FBF7D3F868BB4FF0FF32A24B4846F0
:105948000B99FBF7ADF828BB0022002348463946DF
:10595800FBF79CF810B12D2384F843309B4F9C4BE8
:10596800B8F1470F88BF1F4603234FF00009236192
:105978002AF00403236000965B460FAA21462846B6
:1059880000F0CAF9013040F08F804FF0FF3011B0BD
:10599800BDE8F08F4A463B4648463946FBF79EF835
:1059A80040B1002FB8BF2D238A4FB8BF84F84330C9
:1059B800894BD5E7636808F0DF015A1C42D10623FA
:1059C8006360002206920EAACDE904820DAA4AF469
:1059D800806303920DF13302CDE9013223606368DD
:1059E8004A46009328463B460B91FFF7E7FE0B9982
:1059F800074647290D9908D1C81C02DB63689942FC
:105A080040DDA8F102085FFA88F8B8F1650F1FD8E1
:105A18000139424604F150000D91FFF72CFF0E9A10
:105A280081461318012A236102DC2268D20701D5B6
:105A3800013323619DF83330002B9CD02D2384F84B
:105A4800433098E74729BCD1002BBAD10123B7E7E7
:105A5800B8F1660F18D1002963680BDD216113B90D
:105A68002268D00702D501330B442361A1654FF0AA
:105A78000009DFE713B92268D20701D50233F4E73A
:105A88000123F2E74FF067080E9B994205DB236874
:105A98002161D807EAD54B1CE7E70029CCBF0122D2
:105AA800C1F102021344E0E723685A0507D42369C9
:105AB8003A4659462846B047013029D165E7B8F13A
:105AC800650F40F2D880D4E9120100220023FAF7CA
