:020000040800F2
:1000000000000120B5B7000885620008876200087B
:10001000896200088B6200088D6200080000000001
:100020000000000000000000000000008F620008D7
:1000300091620008000000009362000895620008C9
:10004000FDB70008FDB70008FDB70008AD62000865
:10005000FDB70008FDB70008FDB70008CD62000835
:10006000FDB70008FDB70008FDB70008FDB70008A0
:10007000FDB70008FDB70008FDB70008FDB7000890
:10008000FDB70008FDB70008FDB70008FDB7000880
:100090009D620008FDB70008FDB70008FDB7000825
:1000A000FDB70008FDB70008FDB70008FDB7000860
:1000B000FDB70008DD620008FDB70008FDB70008C5
:1000C000FDB70008FDB70008FDB70008FDB7000840
:1000D000FDB70008FDB70008FDB70008FDB7000830
:1000E000FDB70008BD620008FDB70008FDB70008B5
:1000F000FDB70008FDB70008FDB70008FDB7000810
:10010000FDB70008FDB70008FDB70008FDB70008FF
:10011000FDB70008FDB70008FDB70008FDB70008EF
:10012000FDB70008FDB70008FDB70008FDB70008DF
:1001300000000000000000000000000000000000BF
:1001400000000000000000000000000000000000AF
:10015000000000000000000000000000000000009F
:10016000000000000000000000000000000000008F
:10017000000000000000000000000000000000007F
:10018000000000000000000000000000000000006F
:10019000000000000000000000000000000000005F
:1001A000000000000000000000000000000000004F
:1001B000000000000000000000000000000000003F
:1001C000000000000000000000000000000000002F
:1001D000000000000000000000000000000000001F
:0401E0005FF8E0F1F3
:1001E80010B5054C237833B9044B13B10448AFF369
:1001F80000800123237010BDB80300200000000018
:1002080008FA000808B5034B1BB103490348AFF3CC
:10021800008008BD00000000BC03002008FA0008A8
:10022800034613F8012B002AFBD1181A013870472E
:1002380010F8012B11F8013B012A28BF9A42F7D088
:10024800D01A704781F0004102E000BF83F00043FC
:1002580030B54FEA41044FEA430594EA050F08BF59
:1002680090EA020F1FBF54EA000C55EA020C7FEA1D
:10027800645C7FEA655C00F0E2804FEA5454D4EB9A
:100288005555B8BF6D420CDD2C4480EA020281EA64
:10029800030382EA000083EA010180EA020281EA9C
:1002A8000303362D88BF30BD11F0004F4FEA0131EE
:1002B8004FF4801C4CEA113102D0404261EB4101FD
:1002C80013F0004F4FEA03334CEA133302D0524283
:1002D80063EB430394EA050F00F0A780A4F101043F
:1002E800D5F1200E0DDB02FA0EFC22FA05F2801879
:1002F80041F1000103FA0EF2801843FA05F359415F
:100308000EE0A5F120050EF1200E012A03FA0EFCDD
:1003180028BF4CF0020C43FA05F3C01851EBE37107
:1003280001F0004507D54FF0000EDCF1000C7EEB24
:1003380000006EEB0101B1F5801F1BD3B1F5001F62
:100348000CD349085FEA30004FEA3C0C04F1010481
:100358004FEA445212F5800F80F09A80BCF1004FAA
:1003680008BF5FEA500C50F1000041EB045141EA2C
:10037800050130BD5FEA4C0C404141EB010111F42D
:10038800801FA4F10104E9D191F0000F04BF0146D8
:100398000020B1FA81F308BF2033A3F10B03B3F1B6
:1003A80020020CDA0C3208DD02F1140CC2F10C0246
:1003B80001FA0CF021FA02F10CE002F11402D8BFA4
:1003C800C2F1200C01FA02F120FA0CFCDCBF41EA70
:1003D8000C019040E41AA2BF01EB0451294330BD3F
:1003E8006FEA04041F3C1CDA0C340EDC04F114041C
:1003F800C4F1200220FA04F001FA02F340EA0300F3
:1004080021FA04F345EA030130BDC4F10C04C4F138
:10041800200220FA02F001FA04F340EA0300294618
:1004280030BD21FA04F0294630BD94F0000F83F462
:10043800801306BF81F480110134013D4EE77FEA45
:10044800645C18BF7FEA655C29D094EA050F08BF91
:1004580090EA020F05D054EA000C04BF1946104672
:1004680030BD91EA030F1EBF0021002030BD5FEAB6
:10047800545C05D14000494128BF41F0004130BDDE
:1004880014F580043CBF01F5801130BD01F0004532
:1004980045F0FE4141F470014FF0000030BD7FEAA5
:1004A800645C1ABF194610467FEA655C1CBF0B46A0
:1004B800024650EA013406BF52EA033591EA030FB7
:1004C80041F4002130BD00BF90F0000F04BF0021AF
:1004D800704730B54FF4806404F132044FF00005E2
:1004E8004FF0000150E700BF90F0000F04BF00215B
:1004F800704730B54FF4806404F1320410F00045C1
:1005080048BF40424FF000013EE700BF42004FEABB
:10051800E2014FEA31014FEA02701FBF12F07F4338
:1005280093F07F4F81F06051704732F07F4208BFEF
:10053800704793F07F4F04BF41F40021704730B5F6
:100548004FF4607401F0004521F000411CE700BF42
:1005580050EA010208BF704730B54FF000050AE0C5
:1005680050EA010208BF704730B511F0004502D5C6
:10057800404261EB41014FF4806404F132045FEAC8
:10058800915C3FF4D8AE4FF003025FEADC0C18BF71
:1005980003325FEADC0C18BF033202EBDC02C2F163
:1005A800200300FA03FC20FA02F001FA03FE40EAF5
:1005B8000E0021FA02F11444BDE600BF70B54FF0F9
:1005C800FF0C4CF4E06C1CEA11541DBF1CEA1355D7
:1005D80094EA0C0F95EA0C0F00F0DEF82C4481EA3F
:1005E800030621EA4C5123EA4C5350EA013518BF5F
:1005F80052EA033541F4801143F4801338D0A0FB4C
:1006080002CE4FF00005E1FB02E506F00042E0FBF8
:1006180003E54FF00006E1FB03569CF0000F18BFFE
:100628004EF0010EA4F1FF04B6F5007F64F54074A6
:1006380004D25FEA4E0E6D4146EB060642EAC62139
:1006480041EA55514FEAC52040EA5E504FEACE2EA6
:10065800B4F1FD0C88BFBCF5E06F1ED8BEF1004FA9
:1006680008BF5FEA500E50F1000041EB045170BD25
:1006780006F0004646EA010140EA020081EA030169
:10068800B4EB5C04C2BFD4EB0C0541EA045170BD65
:1006980041F480114FF0000E013C00F3AB8014F1DF
:1006A800360FDEBF002001F0004170BDC4F1000428
:1006B800203C35DA0C341BDC04F11404C4F12005A9
:1006C80000FA05F320FA04F001FA05F240EA020004
:1006D80001F0004221F0004110EBD37021FA04F63A
:1006E80042EB06015EEA430E08BF20EAD37070BDF4
:1006F800C4F10C04C4F1200500FA04F320FA05F053
:1007080001FA04F240EA020001F0004110EBD37054
:1007180041F100015EEA430E08BF20EAD37070BDC4
:10072800C4F1200500FA05F24EEA020E20FA04F39D
:1007380001FA05F243EA020321FA04F001F000414C
:1007480021FA04F220EA020000EBD3705EEA430EBD
:1007580008BF20EAD37070BD94F0000F0FD101F0EC
:100768000046400041EB010111F4801F08BF013C25
:10077800F7D041EA060195F0000F18BF704703F063
:100788000046520043EB030313F4801F08BF013DEA
:10079800F7D043EA0603704794EA0C0F0CEA1355A6
:1007A80018BF95EA0C0F0CD050EA410618BF52EA60
:1007B8004306D1D181EA030101F000414FF0000066
:1007C80070BD50EA410606BF1046194652EA430674
:1007D80019D094EA0C0F02D150EA013613D195EAE8
:1007E8000C0F05D152EA03361CBF104619460AD130
:1007F80081EA030101F0004141F0FE4141F470013A
:100808004FF0000070BD41F0FE4141F4780170BD29
:1008180070B54FF0FF0C4CF4E06C1CEA11541DBF8E
:100828001CEA135594EA0C0F95EA0C0F00F0A7F890
:10083800A4EB050481EA030E52EA03354FEA0131BD
:1008480000F088804FEA03334FF0805545EA1313D0
:1008580043EA12634FEA022245EA111545EA106598
:100868004FEA00260EF000419D4208BF964244F12F
:10087800FD0404F5407402D25B084FEA3202B61A4E
:1008880065EB03055B084FEA32024FF480104FF422
:10089800002CB6EB020E75EB030E22BFB61A754696
:1008A80040EA0C005B084FEA3202B6EB020E75EB29
:1008B800030E22BFB61A754640EA5C005B084FEA91
:1008C8003202B6EB020E75EB030E22BFB61A75465E
:1008D80040EA9C005B084FEA3202B6EB020E75EB69
:1008E800030E22BFB61A754640EADC0055EA060E2A
:1008F80018D04FEA051545EA16754FEA06164FEA6D
:10090800C30343EA52734FEAC2025FEA1C1CC0D118
:1009180011F4801F0BD141EA00014FF000004FF0A5
:10092800004CB6E711F4801F04BF01430020B4F166
:10093800FD0C88BFBCF5E06F3FF6AFAEB5EB030C1E
:1009480004BFB6EB020C5FEA500C50F1000041EB1B
:10095800045170BD0EF0004E4EEA113114EB5C04E8
:10096800C2BFD4EB0C0541EA045170BD41F48011BB
:100978004FF0000E013C90E645EA060E8DE60CEAC3
:10098800135594EA0C0F08BF95EA0C0F3FF43BAFE0
:1009980094EA0C0F0AD150EA01347FF434AF95EA97
:1009A8000C0F7FF425AF104619462CE795EA0C0F7B
:1009B80006D152EA03353FF4FDAE1046194622E748
:1009C80050EA410618BF52EA43067FF4C5AE50EA22
:1009D80041047FF40DAF52EA43057FF4EBAE12E712
:1009E8004FF0FF3C06E000BF4FF0010C02E000BFF3
:1009F8004FF0010C4DF804CD4FEA410C7FEA6C5CD6
:100A08004FEA430C18BF7FEA6C5C1BD001B050EA78
:100A1800410C0CBF52EA430C91EA030F02BF90EA63
:100A2800020F0020704710F1000F91EA030F58BF22
:100A3800994208BF90422CBFD8176FEAE37040F084
:100A4800010070474FEA410C7FEA6C5C02D150EA22
:100A5800013C07D14FEA430C7FEA6C5CD6D152EADD
:100A6800033CD3D05DF8040B704700BF84461046A2
:100A780062468C461946634600E000BF01B5FFF7A1
:100A8800B7FF002848BF10F1000F01BD4DF808ED71
:100A9800FFF7F4FF0CBF012000205DF808FB00BF42
:100AA8004DF808EDFFF7EAFF34BF012000205DF89C
:100AB80008FB00BF4DF808EDFFF7E0FF94BF0120E9
:100AC80000205DF808FB00BF4DF808EDFFF7CEFFEA
:100AD80094BF012000205DF808FB00BF4DF808ED29
:100AE800FFF7C4FF34BF012000205DF808FB00BFFA
:100AF8004FEA410C7FEA6C5C02D150EA013C0AD112
:100B08004FEA430C7FEA6C5C02D152EA033C02D103
:100B18004FF0000070474FF0010070474FEA410264
:100B280012F5001215D211D56FF47873B3EB625237
:100B380012D94FEAC12343F0004343EA505311F05E
:100B4800004F23FA02F018BF404270474FF00000F0
:100B5800704750EA013005D111F0004008BF6FF02E
:100B6800004070474FF00000704700BF4A0011D2A4
:100B780012F5001211D20DD56FF47873B3EB6252EF
:100B88000ED44FEAC12343F0004343EA505323FAFB
:100B980002F070474FF00000704750EA013002D170
:100BA8004FF0FF3070474FF0000070474FEA4102A6
:100BB800B2F1E04324BFB3F5001CDCF1FE5C0DD9B3
:100BC80001F0004C4FEAC0024CEA5070B2F1004FFD
:100BD80040EB830008BF20F00100704711F0804F00
:100BE80021D113F13872BCBF01F00040704741F4C5
:100BF80080114FEA5252C2F11802C2F1200C10FAC9
:100C08000CF320FA02F018BF40F001004FEAC123AC
:100C18004FEAD32303FA0CFC40EA0C0023FA02F350
:100C28004FEA4303CCE77FEA625307D150EA013326
:100C38001EBF4FF0FE4040F44000704701F00040F6
:100C480040F0FE4040F40000704700BF80F00040D4
:100C580002E000BF81F0004142001FBF5FEA41038C
:100C680092EA030F7FEA226C7FEA236C6AD04FEA8C
:100C78001262D2EB1363C1BFD218414048404140D1
:100C8800B8BF5B42192B88BF704710F0004F40F483
:100C9800000020F07F4018BF404211F0004F41F49F
:100CA800000121F07F4118BF494292EA030F3FD06B
:100CB800A2F1010241FA03FC10EB0C00C3F120037E
:100CC80001FA03F100F0004302D5494260EB40000D
:100CD800B0F5000F13D3B0F1807F06D340084FEA78
:100CE800310102F10102FE2A51D2B1F1004F40EB6D
:100CF800C25008BF20F0010040EA030070474900D5
:100D080040EB000010F4000FA2F10102EDD1B0FA9F
:100D180080FCACF1080CB2EB0C0200FA0CF0AABF94
:100D280000EBC25052421843BCBFD0401843704732
:100D380092F0000F81F4000106BF80F40000013238
:100D4800013BB5E74FEA41037FEA226C18BF7FEA0F
:100D5800236C21D092EA030F04D092F0000F08BF51
:100D68000846704790EA010F1CBF0020704712F038
:100D78007F4F04D1400028BF40F00040704712F177
:100D880000723CBF00F50000704700F0004343F0DC
:100D9800FE4040F4000070477FEA226216BF084612
:100DA8007FEA23630146420206BF5FEA412390EAD5
:100DB800010F40F4800070474FF0000304E000BFCB
:100DC80010F0004348BF40425FEA000C08BF70477C
:100DD80043F0964301464FF000001CE050EA010240
:100DE80008BF70474FF000030AE000BF50EA010255
:100DF80008BF704711F0004302D5404261EB410142
:100E08005FEA010C02BF84460146002043F0B64366
:100E180008BFA3F18053A3F50003BCFA8CF2083A8B
:100E2800A3EBC25310DB01FA02FC634400FA02FC94
:100E3800C2F12002BCF1004F20FA02F243EB02009B
:100E480008BF20F00100704702F1200201FA02FCFD
:100E5800C2F1200250EA4C0021FA02F243EB0200F0
:100E680008BF20EADC7070474FF0FF0C1CEAD05234
:100E78001EBF1CEAD15392EA0C0F93EA0C0F6FD0F5
:100E88001A4480EA010C400218BF5FEA41211ED0D3
:100E98004FF0006343EA501043EA5111A0FB0131BF
:100EA8000CF00040B1F5000F3EBF490041EAD37194
:100EB8005B0040EA010062F17F02FD2A1DD8B3F110
:100EC800004F40EBC25008BF20F00100704790F07F
:100ED800000F0CF0004C08BF49024CEA502040EAD1
:100EE80051207F3AC2BFD2F1FF0340EAC250704797
:100EF80040F400004FF00003013A5DDC12F1190FD5
:100F0800DCBF00F000407047C2F10002410021FA46
:100F180002F1C2F1200200FA02FC5FEA310040F15E
:100F2800000053EA4C0308BF20EADC70704792F0D7
:100F3800000F00F0004C02BF400010F4000F013A0F
:100F4800F9D040EA0C0093F0000F01F0004C02BF0A
:100F5800490011F4000F013BF9D041EA0C018FE779
:100F68000CEAD15392EA0C0F18BF93EA0C0F0AD07F
:100F780030F0004C18BF31F0004CD8D180EA0100A5
:100F880000F00040704790F0000F17BF90F0004F3E
:100F9800084691F0000F91F0004F14D092EA0C0F20
:100FA80001D142020FD193EA0C0F03D14B0218BFB3
:100FB800084608D180EA010000F0004040F0FE40F9
:100FC80040F40000704740F0FE4040F44000704795
:100FD8004FF0FF0C1CEAD0521EBF1CEAD15392EA14
:100FE8000C0F93EA0C0F69D0A2EB030280EA010C04
:100FF80049024FEA402037D04FF0805343EA11119D
:1010080043EA10130CF000408B4238BF5B0042F1FA
:101018007D024FF4000C8B4224BF5B1A40EA0C009F
:10102800B3EB510F24BFA3EB510340EA5C00B3EBD1
:10103800910F24BFA3EB910340EA9C00B3EBD10FBF
:1010480024BFA3EBD10340EADC001B0118BF5FEA11
:101058001C1CE0D1FD2A3FF650AF8B4240EBC2503A
:1010680008BF20F0010070470CF0004C4CEA5020FB
:101078007F32C2BFD2F1FF0340EAC250704740F44A
:1010880000004FF00003013A37E792F0000F00F03C
:10109800004C02BF400010F4000F013AF9D040EABA
:1010A8000C0093F0000F01F0004C02BF490011F44E
:1010B800000F013BF9D041EA0C0195E70CEAD15346
:1010C80092EA0C0F08D142027FF47DAF93EA0C0F2D
:1010D8007FF470AF084676E793EA0C0F04D14B0211
:1010E8003FF44CAF08466EE730F0004C18BF31F0C3
:1010F800004CCAD130F000427FF45CAF31F00043BD
:101108007FF43CAF5FE700BF4FF0FF3C06E000BF55
:101118004FF0010C02E000BF4FF0010C4DF804CD78
:101128004FEA40024FEA41037FEA226C18BF7FEA88
:10113800236C11D001B052EA530C18BF90EA010F8A
:1011480058BFB2EB030088BFC81738BF6FEAE17019
:1011580018BF40F0010070477FEA226C02D15FEAB5
:10116800402C05D17FEA236CE4D15FEA412CE1D021
:101178005DF8040B704700BF844608466146FFE7E8
:101188000FB5FFF7C9FF002848BF10F1000F0FBDCA
:101198004DF808EDFFF7F4FF0CBF012000205DF8C3
:1011A80008FB00BF4DF808EDFFF7EAFF34BF012048
:1011B80000205DF808FB00BF4DF808EDFFF7E0FFE1
:1011C80094BF012000205DF808FB00BF4DF808ED32
:1011D800FFF7D2FF94BF012000205DF808FB00BF95
:1011E8004DF808EDFFF7C8FF34BF012000205DF877
:1011F80008FB00BF42000ED2B2F1FE4F0BD34FF0F6
:101208009E03B3EB126209D44FEA002343F0004374
:1012180023FA02F070474FF00000704712F1610F97
:1012280001D1420202D14FF0FF3070474FF0000069
:10123800704700BF7BB972B90029BEBF00204FF0CC
:10124800004106E008BF00281CBF6FF000414FF0C6
:10125800FF3000F0A7B9ADF1080C6DE904CE002904
:1012680009DB002B1ADB00F035F8DDF804E0DDE9D6
:10127800022304B07047404261EB4101002B1BDBA5
:1012880000F028F8DDF804E0DDE9022304B040426C
:1012980061EB4101524263EB43037047524263EBF7
:1012A800430300F017F8DDF804E0DDE9022304B099
:1012B800404261EB41017047524263EB430300F047
:1012C80009F8DDF804E0DDE9022304B0524263EBDB
:1012D800430370472DE9F0478C460446089E002BCF
:1012E8004BD18A42154667D9B2FA82F24AB1C2F1A5
:1012F800200701FA02F320FA07F7954047EA030CA2
:1013080094404FEA154EBCFBFEF71FFA85F80EFB1A
:1013180017C307FB08F9210C41EA0343994509D98A
:10132800EB1807F1FF3180F01C81994540F21981D3
:10133800023F2B44A3EB0903B3FBFEF00EFB103373
:1013480000FB08F1A4B244EA0344A14209D92C19CC
:1013580000F1FF3380F00781A14240F20481023896
:101368002C4440EA07400027641A1EB10023D440E9
:10137800C6E900433946BDE8F0878B4209D9002EFB
:1013880000F0EC800027C6E9000138463946BDE880
:10139800F087B3FA83F7002F48D18B4202D38242F9
:1013A80000F2FB80841A61EB030301209C46002EA7
:1013B800E0D0C6E9004CDDE702B9FFDEB2FA82F2FE
:1013C800002A40F08F800127491B4FEA15481FFA71
:1013D80085F9B1FBF8FE08FB1E1109FB0EF04FEA78
:1013E800144C4CEA0143984207D9EB180EF1FF312F
:1013F80002D2984200F2CD808E461B1AB3FBF8F059
:1014080008FB103309FB00F9A4B244EA0344A145E0
:1014180007D92C1900F1FF3302D2A14500F2B6809A
:101428001846A4EB090440EA0E409EE7C7F12005E0
:10143800BB4022FA05FC4CEA030C21FA05F44FEAFA
:101448001C4EB4FBFEF91FFA8CF80EFB194420FA67
:1014580005F3B94009FB08FA19430B0C43EA0444A5
:10146800A24502FA07F200FA07F30BD91CEB0404B1
:1014780009F1FF3080F08880A24540F28580A9F10B
:1014880002096444A4EB0A04B4FBFEF00EFB10440A
:1014980000FB08FA89B241EA0444A24508D91CEBCA
:1014A800040400F1FF316BD2A24569D902386444C3
:1014B80040EA0940A0FB0289A4EB0A044C454146D6
:1014C800CE4654D351D0002E69D05A1A64EB0E047C
:1014D80004FA05F522FA07F3FC401D43C6E9005457
:1014E800002747E79540C2F1200321FA03F04FEAAD
:1014F8001548B0FBF8F71FFA85F908FB170024FA1E
:1015080003F3914007FB09FC0B43190C41EA004126
:101518008C4504FA02F407D9691807F1FF3031D273
:101528008C452FD9023F2944A1EB0C01B1FBF8F0FF
:1015380008FB101C00FB09FE99B241EA0C418E45DC
:1015480007D9691800F1FF3318D28E4516D9023829
:101558002944A1EB0E0140EA07473AE737463046EF
:1015680008E70F46E6E61846FBE64345ABD2B8EB7C
:10157800020169EB0C0201389646A4E71846E8E731
:10158800084695E70746CFE781467BE702382C44B3
:1015980047E7AEF1020E2B442FE7384607E73746F8
:1015A800E8E600BF704700BF4B290FD108B532B934
:1015B80000224021064808F014FA012008BD012243
:1015C8004021034808F00DFA0120F7E70020704792
:1015D8000008014030B583B0182918D014461D46BC
:1015E80019291CD017290DD000200EE015F8013B51
:1015F80002A901F8013D013CE4B2642301220C4830
:1016080006F089FD002CF1D1012003B030BD012284
:101618001021084808F0E5F900BF0120F5E700BFF0
:1016280000221021034808F0DCF90120EDE700BF93
:101638009C0E00200008014008B502480BF0A4F9F0
:1016480008BD00BF54FA000800B597B000230E93F8
:1016580011930793089309930A930B9301930293A9
:1016680003930493059306930D230C934FF4803250
:101678000D920123109312930F9302231393149244
:101688004FF4E01315930CA807F03EFB60BB0F2343
:10169800079302210891002309934FF480620A926C
:1016A8000B9307A807F056FD08BB112301930023ED
:1016B80006934FF48073029301A807F03FFEC8B960
:1016C80007F016FE0D4BA3FB0030800908F0F4F973
:1016D800042008F007FA002211464FF0FF3008F006
:1016E800ABF917B05DF804FBFFF7A6FFCFE7FFF7EC
:1016F800A3FFDAE7FFF7A0FFE2E700BFD34D6210D0
:1017080038B507F0B3FAFFF79FFF00F09BF804F035
:10171800A3FA04F0F5FA04F007FB04F01FFB3748BE
:10172800374B0361374C03F58063236100F04EFBB0
:10173800204600F04BFB01F0EFFB04F093FB00F0B8
:10174800BFF8314D314B324A3249284609F0A4F9E5
:10175800284609F0D5FF0021284609F0D8FF2E4C6D
:1017680000224021204608F03CF90A2007F0A2FA9E
:1017780001224021204608F034F900F015FC4FF40E
:10178800FA7007F097FA01F007FE00F035FA01F059
:10179800A9FA03F041FF04F0F7F804F055F900F056
:1017A80049FD07F081FA044607F07EFA284609F059
:1017B80057F907F079FA00F0B9FD104800F0BCFBC2
:1017C800104800F0B9FB01F04FFC01F0F5FE00F005
:1017D8005DF901F00DFB04F03BF804F09DF80F48AB
:1017E80006F091FD07F060FA001B6428E1D906486D
:1017F80009F043F907F058FA0446DAE7600A0020CE
:1018080000540040C40A0020280B0020B11500082D
:10181800DD150008700C010800080140F40E0020D6
:1018280008B50138012806D80B461146184604F0B9
:101838000FFDC0B208BD09F0DFFF092303604FF0B8
:10184800FF30F7E72DE9F04186B0002402940394B5
:1018580004940594184B9A6942F004029A619B69B2
:1018680003F004030193019B144D01224FF400413E
:10187800284608F0B6F84FF4004302930126039671
:1018880004944FF00208CDF8148002A9284607F006
:10189800A9FF5027029703960494CDF8148002A953
:1018A800284607F09FFF32463946284608F099F83F
:1018B80006B0BDE8F08100BF0010024000080140FA
:1018C80010B586B00024039404940594144B9A69C7
:1018D80042F010029A619B6903F010030193019B87
:1018E8004FF4705302930123049302A90D4807F0A3
:1018F80079FF0D4B1C7009E00B4800EB83020021B7
:1019080051709170D170117101330370064B1B78BF
:10191800032BF1D907F0C8F9034B586106B010BD85
:101928000010024000100140A80B002010B504462A
:1019380003280ED8DFE800F0022436484FF480610F
:10194800304808F047F8A8B92F4B03EB840301226D
:101958009A702D4B03EB84039A785B789A424AD0AD
:10196800294A02EB840213790133DBB21371052B88
:101978003CD010BD244B03EB840300229A70E8E7A7
:101988004FF400611F4808F025F828B91E4B03EBF7
:10199800840301229A70DCE71B4B03EB84030022CB
:1019A8009A70D6E74FF48051164808F013F828B912
:1019B800154B03EB840301229A70CAE7124B03EB21
:1019C800840300229A70C4E74FF400510D4808F0D0
:1019D80001F828B90C4B03EB840301229A70B8E78D
:1019E800094B03EB840300229A70B2E79378537093
:1019F80000231371BDE7044B03EB84040023237118
:101A0800B7E700BF00100140A80B002010B5002464
:101A18001D4B1C701CE01C4901EB8301C97871B98E
:101A2800032B09D8DFE803F0020A0406144606E08F
:101A3800032404E0042402E00C4600E00224124AD5
:101A480002EB83020121D1700FE001330E4A1370BB
:101A58000D4B1878032814D8FFF768FF0A4A137843
:101A680002EB83025278012AD5D0074A02EB83029F
:101A78005278002AE9D1044A02EB83020021D1708E
:101A8800E3E7204610BD00BFA80B002008B507F00B
:101A98000BF9294B5B69C01A042800D808BDFFF769
:101AA800B5FF0138032810D8DFE800F002142A38FF
:101AB800224B00221A70224A9378B3FA83F35B0907
:101AC800937000F07BFB03F00DFF07F0EDF81A4B65
:101AD8005861E3E7194B00221A70194AD378B3FA10
:101AE80083F35B09D37043B1164B187800F0C6FB3B
:101AF80000F064FB03F0F6FEE7E700F0E9FBF7E728
:101B08000E4B00221A700E4A1379B3FA83F35B095D
:101B1800137100F053FB03F0E5FED6E7074B0022F4
:101B28001A70074A5379B3FA83F35B09537100F0CB
:101B380045FB03F0D7FEC8E7A80B0020EC03002004
:101B4800580C0020380C0020642804D800EB8000D2
:101B58004300014A53637047002C014008B5002038
:101B6800FFF7F2FF08BD000008B5024B9878FFF7B1
:101B7800EBFF08BD380C00200268094B9A4200D0E0
:101B8800704782B003F564439A6942F400629A612F
:101B98009B6903F400630193019B02B0704700BF87
:101BA800002C014000B587B00023029303930493EF
:101BB800059302680E4B9A4202D007B05DF804FB09
:101BC80003F564439A6942F004029A619B6903F041
:101BD80004030193019B4FF4807302930223039340
:101BE8000123059302A9034807F0FCFDE5E700BFC0
:101BF800002C01400008014010B51948194B03603A
:101C080011234360002383604FF47A72C26003613A
:101C18004361836106F0E8FDC8B9134960230B608E
:101C28004FF496734B6000228A60CA600A614A6169
:101C38008A610B4806F02AFE60B9094C2046FFF776
:101C4800B1FF0021204606F09DFE30B910BDFFF718
:101C5800F3FCE2E7FFF7F0FCEFE7FFF7EDFCF5E751
:101C6800E00B0020002C0140C40B0020024B186040
:101C780059609A60704700BF200C00202DE9F84396
:101C88000546294CD4F8049021684846FEF7E4FF3D
:101C980001464846FFF79CF906466061D4F8108073
:101CA80041462846FEF7D6FF01463046FFF7DCF8E6
:101CB80001464046FEF7D0FF0546E0603046FEF795
:101CC80025FC02460B4600201849FEF7BFFA0646D7
:101CD8000F464846FEF71AFC02460B463046394680
:101CE800FEF76CFC06460F4629464046FEF7B2FF53
:101CF80020F00040FEF70AFC80468946A068FEF7FF
:101D080005FC02460B4640464946FEF757FC02468C
:101D18000B4630463946FEF79BFAFEF747FF6060F0
:101D280025612846BDE8F883200C00200000F03F1C
:101D380010B541EA80142046FEF7D6FB0EA3D3E97E
:101D48000023FEF7ADFE88B92046FFF735F8FEF709
:101D5800DDFB09A3D3E90023FEF778FA08A3D3E94A
:101D68000023FEF755FDFEF721FF10BD40F2FD747C
:101D7800EAE700BFAFF300800000000000F49F40D6
:101D880000000000005EC54008B541EA8010FFF77A
:101D980013F8FEF7BBFB08A3D3E90023FEF756FAB6
:101DA80007A3D3E90023FEF733FD0022064BFEF715
:101DB8004DFAFEF7FBFE08BD0000000000F49F404E
:101DC80061A41D2B104621400000444010B582B08C
:101DD80004460369154A934212D0154A93421AD011
:101DE800002323600023A360E3604FF07E50114A74
:101DF8000146FFF73BFF06F057FF606002B010BDD9
:101E080003F098FE6423009301230022BE210A48B0
:101E180005F0A0FEE4E703F0ABFE64230093012382
:101E28000022BE21054805F095FED9E70054004080
:101E3800005800400AD7233CF40D0020480E00202B
:101E4800F0B585B004460369374A934204D0374A4F
:101E5800934235D005B0F0BD354E6423009301237D
:101E68000022BE21304605F075FE4FF47A770297BE
:101E78000125019500942B468022BE21304605F0AD
:101E88002BFF02970195631900932B468122BE21EF
:101E9800304605F021FF02970195A31C00932B46BD
:101EA8008222BE21304605F017FF029701950334C0
:101EB80000942B468322BE21304605F00DFFC9E76A
:101EC8006423009301230022BE21194805F042FE35
:101ED800184E4FF47A7702970125019500942B4606
:101EE8008022BE21304605F0F7FE0297019563195E
:101EF80000932B468122BE21304605F0EDFE029765
:101F08000195A31C00932B468222BE21304605F082
:101F1800E3FE02970195033400942B468322BE21E9
:101F2800304605F0D9FE95E70054004000580040BF
:101F3800F40D0020480E002010B5044606F0B4FE4B
:101F48006368C01AC82800D810BD06F0ADFE204648
:101F5800FFF776FF21786078FFF7EAFEFEF7D6FAFA
:101F68000DA3D3E90023FEF729FB0DA3D3E9002332
:101F7800FEF74EFCFEF71AFEA060A178E078FFF7A6
:101F880003FFFFF77BFEFFF779FEE06006F08CFEAB
:101F98006060D9E7AFF30080A4703D0AD72890406D
:101FA800000000403333C33F10B582B0084A1378AD
:101FB800084C5168019152780092DB0800221146C2
:101FC800204608F098FC204608F057FD02B010BDE6
:101FD800FCFA0008280B0020F8B5184B184C0FCB5A
:101FE80084E80F0007F0DCFD164B00241C60164A3D
:101FF8009A600222DA60BCB1144B134A1A600024BA
:10200800202C17D824F00305114F104E31687A5947
:1020180000232144022007F01DFEEA593368E358E3
:102028009A4209D10434EBE70A49064807F084FECE
:102038000134E0E707F0CEFDF8BD00BF640C0020D6
:10204800440C0020D803002000E00508D403002039
:10205800380C0020E803002070B5124E3446124DAB
:102068000FCD0FC495E80F0084E80F00F2690F4BFD
:102078009A4216D0002232607260B260F260326119
:102088007261B2613222B2700122F27032714FF481
:102098009672F28040F2D2423281044AF261FFF72E
:1020A8009BFF70BD380C002000E00508A155FF001B
:1020B80038B5064D064C2A780421204607F082FBE5
:1020C8002A890521204607F07DFB38BD580C0020E1
:1020D800E00D002070B5134C0421204607F07AFB70
:1020E800114E30700621204607F074FB05040521C7
:1020F800204607F06FFB2843B0600121204607F017
:1021080069FB4AF2A55398420AD000223270B260A5
:10211800FFF7CEFF4AF2A5520121204607F052FBF5
:1021280070BD00BFE00D0020580C002070B5204C99
:102138001121204607F04EFB05041021204607F028
:1021480049FB28431B4D28601321204607F042FB1A
:1021580006041221204607F03DFB30436860152134
:10216800204607F037FB06041421204607F032FB0F
:102178003043A8601721204607F02CFB06041621DF
:10218800204607F027FB3043E8601821204607F077
:1021980021FB4BF6BB33984209D0074B0FCB85E8A0
:1021A8000F004BF6BB321821014807F00BFB70BD3E
:1021B800E00D0020640C0020440C002038B5064DCA
:1021C800064C6A880221204607F0FCFAAA880321F7
:1021D800204607F0F7FA38BD580C0020E00D002023
:1021E80038B5124C0321204607F0F4FA0504022101
:1021F800204607F0EFFA28430D4BC3F802000621EA
:10220800204607F0E7FA4AF6AA2398420DD0084B71
:1022180000229A70DA701A715A71FFF7CFFF4AF6E6
:10222800AA220621204607F0CDFA38BDE00D00208D
:10223800580C002010B5FFF70FFFFFF7D1FFFFF78D
:1022480049FFFFF773FF0A4B00225A70094CA07828
:10225800FFF77AFCE37843B9FFF780FC00F0DCF87D
:1022680006F022FD044B186010BDFFF77DFCF5E772
:10227800580C0020380C0020640C0020013803287A
:102288001FD8DFE800F002091017104B01221A705E
:102298004FF461729A6070470C4B01221A704FF428
:1022A800E1629A607047094B01221A704FF461622B
:1022B8009A607047054B01221A704FF4E1529A60F8
:1022C8007047024B00221A709A607047580C002021
:1022D80008B5034B00221A709A60FFF7E9FE08BDA3
:1022E800580C002008B5064B1B7803B100B108BD97
:1022F800034B0022DA70FFF7EBFFFFF75FFFF6E70B
:10230800580C002000220CE002F110039B0003F19E
:10231800804303F5D843044931F81210196001329B
:1023280092B2072AF0D97047640C002008B506F06D
:10233800BBFC324B1B68C01AB0F57A7F33D3304AE6
:1023480013780133DBB213701E2B02D91346002217
:102358001A702A4AD3680133D3602A4A934201D9B2
:10236800264BDA60284B1B791BB1244A936801334A
:102378009360254B1B7883B1234BDB781BB11F4A35
:10238800536801335360204A9368013B936013B943
:10239800134600229A60FFF78BFE06F085FC174B68
:1023A8001860FFF7AFFF194B1B8803B108BD164B28
:1023B8009868FFF797FF164B5B78012B0BD0022B21
:1023C8000FD00F4B1B780E2B11D8124808F048FB82
:1023D80000F0FAF9EAE70F4808F042FB00F0F4F9D8
:1023E800E4E70C4808F03CFB00F058FCDEE709483D
:1023F80008F036FB00F052FCD8E700BF640C002060
:10240800EC030020001EF8BB580C0020EE0300204F
:10241800380C0020280B002008B5044808F020FBE1
:1024280006F042FC024B586008BD00BF280B002094
:10243800740C002030B583B00546134C1349204670
:1024480008F010FE124B21220921204608F0CCFD8D
:102458006DB9104A13785168019152780092DB08DF
:1024680021220021084808F046FA03B030BD0A4A84
:1024780013785168019152780092DB0821220021DB
:10248800204608F038FAF0E7280B0020A84F01088A
:10249800D802010804FB00088CFB000830B583B0A3
:1024A8000546134C1349204608F0DCFD124B212247
:1024B8002D21204608F098FD6DB9104A137851680F
:1024C800019152780092DB0821222021084808F067
:1024D80012FA03B030BD0A4A137851680191527854
:1024E8000092DB0821222021204608F004FAF0E7B8
:1024F800280B0020A84F0108F00201084C01010830
:10250800D401010830B583B00546154C154920465D
:1025180008F0A8FD144B21224B21204608F064FD49
:10252800124B1B782B420DD1114A13785168019137
:1025380052780092DB0826224421094808F0DBF98A
:1025480003B030BD0B4A137851680191527800925C
:10255800DB0826224421204608F0CDF9F0E700BF29
:10256800280B0020A84F01085C020108740C002009
:102578005CFA0008ACFA000830B583B005461E4C7A
:102588001E49204608F06EFD1D4B2122652120467C
:1025980008F02AFDC5B91B4A1378174C51680191F8
:1025A80052780092DB0822226221204608F0A3F923
:1025B8001549204608F056FD144B3E226921204655
:1025C80008F012FD03B030BD114A1378516801912B
:1025D80052780092DB0822226221204608F08BF90B
:1025E8000949204608F03EFD0A4B3E226C21204650
:1025F80008F0FAFCE6E700BF280B0020A84F010806
:10260800E00201081400010870520108EC020108F8
:102618009C000108E8020108F0B585B005460C46A3
:102628000846FEF7CDFB2946FEF7BCFD18B120464B
:10263800FEF7C2FB05463F492846FEF715FC05464E
:102648002046FEF7B9FB01462846FEF7C1FCFEF717
:10265800D1FDC0B2C0F16400FDF746FF21F0004390
:102668001946FEF783FAC5B2322404FB05F4324B4F
:1026780083FB043464093149314808F0F3FC642DC4
:1026880018D0A5F11F03DBB2272B1AD9A5F10B032C
:10269800DBB2132B1CD92B49294808F0E3FC2A4B41
:1026A8005B78052B3ED8294B15221121244808F0C8
:1026B8009BFC13E0264B15221121214808F094FCBD
:1026C8000CE0244B152211211D4808F08DFC05E073
:1026D800214B152211211A4808F086FC184E1F4B71
:1026E8000A220721304608F07FFC0A270097362384
:1026F80002222B21304608F04BF92A46184902A835
:102708000AF06AF902AB3A466221304608F06CFCDE
:1027180006230093234604222D21304608F013F99E
:1027280005B0F0BD0F4B15221121054808F05CFCDF
:10273800D4E700BF0000C8421F85EB512C340108C4
:10274800280B0020B02C0108740C0020B0020108EE
:10275800600201087402010888020108C802010821
:10276800D00201089802010870B582B0154C012109
:10277800204608F03BFD28250095802318220021DB
:10278800204608F005F9802324220021204608F07D
:1027980012FD012600962B4618222021204608F01B
:1027A800FEFC00962B4618224021204608F0F7FC34
:1027B80000962B4618226021204608F0F0FC02B053
:1027C80070BD00BF280B002010B506F06DFA174B3E
:1027D8005B68C01AC82810D9144A1378DB431370F1
:1027E80053780133DBB253700A2B02D91346002207
:1027F8005A7006F059FA0D4B58600D4808F030F938
:102808000C4CA078FFF716FEE078FFF747FE20791A
:10281800FFF778FE6079FFF7AFFEFFF7A5FF064BDD
:10282800D988064B9868FFF7F7FE10BD740C002096
:10283800280B0020580C0020380C0020600A0020CB
:1028480010B58CB002AB83E8030006F02DFA274BD5
:102858005B68C01AB0F5967F34D8244B1B78002BE0
:102868003AD19DF90E309DF90D20214904A80AF0AE
:10287800B3F8204C2049204608F0F4FB04AB1022A2
:102888000521204608F0B0FB16220092502314219F
:10289800204608F084FC1949204608F0E3FB9DF91E
:1028A8000B209DF90A30BDF908100091144904A8BD
:1028B8000AF092F804AB0C224E21204608F094FB53
:1028C8000CB010BD094C2378B3FA83F35B0923706D
:1028D80006F0EAF96060C0E79DF90E309DF90D2019
:1028E800084904A80AF078F8C3E700BF7C0C002068
:1028F8004C030108280B00208C100108B83A010885
:10290800580301084003010830B585B00446144D4A
:102918001449284608F0A6FB134B22220321284617
:1029280008F062FB11492046FEF75AFC00B10F4C33
:102938002046FDF7EBFD02460B460D4901A80AF0BB
:102948004BF8074C01AB22223521204608F04CFBFE
:10295800084B22224D21204608F046FB05B030BD29
:10296800280B0020B83A01081403010800C0794474
:10297800200301082803010830B585B00446144D2A
:102988001449284608F06EFB134B2B2203212846D6
:1029980008F02AFB11492046FEF722FC00B10F4C33
:1029A8002046FDF7B3FD02460B460D4901A80AF083
:1029B80013F8074C01AB2B223521204608F014FBF5
:1029C800084B2B224D21204608F00EFB05B030BDE8
:1029D800280B0020B83A01080803010800C0794410
:1029E800200301082803010830B585B004461C4DB2
:1029F8001C49284608F036FB1B4B34220221284686
:102A080008F0F2FA19492046FEF7EAFB00B1174C24
:102A18002046FDF77BFD10A3D3E90023FDF7CEFD8B
:102A28000022134BFDF7F4FE02460B46114901A89C
:102A380009F0D2FF0A4C01AB34223521204608F0B8
:102A4800D3FA0D4B34224D21204608F0CDFA05B0BB
:102A580030BD00BFAFF300809A9999999999E93FE1
:102A6800280B0020B83A01082C03010800C079445B
:102A780000007E40340301083C0301080000000008
:102A880030B585B004461C4D1C49284608F0EAFAC2
:102A98001B4B3D220221284608F0A6FA1949204678
:102AA800FEF79EFB00B1174C2046FDF72FFD10A343
:102AB800D3E90023FDF782FD0022134BFDF7A8FEA2
:102AC80002460B46114901A809F086FF0A4C01ABE2
:102AD8003D223521204608F087FA0D4B3D224D2135
:102AE800204608F081FA05B030BD00BFAFF3008082
:102AF8009A9999999999E93F280B0020B83A0108C1
:102B08000003010800C0794400007E403403010836
:102B18003C03010870B582B006463B4D3B4C294644
:102B2800204608F09FFA2946204608F09BFA384BC1
:102B38003D226C21204608F057FA012500950D2307
:102B480028226D21204608F02AFB00950D23282213
:102B58007D21204608F023FB102328226E212046E1
:102B680008F029FB0325009509233222712120460C
:102B780007F0E9FE009509232E227121204607F06F
:102B8800E2FE009509232A227121204607F0DBFE88
:102B9800AE421AD8DFE806F0021B22291B4C032597
:102BA8000095092332227121204607F0CCFE0095BA
:102BB80009232E227121204607F0C5FE009509231E
:102BC8002A227121204607F0BEFE02B070BD114BCB
:102BD800382271210D4808F007FAF6E70D4B342228
:102BE80071210A4808F000FAEFE70A4D074C2B4616
:102BF80030227121204608F0F7F92B46382271213E
:102C0800204608F0F1F9E0E7003E0108280B002013
:102C1800F4020108FC02010830B587B00546194ADC
:102C28001378194C5168019152780092DB081622EA
:102C38005A21204607F05FFE1449204608F012FA90
:102C4800134B24226E21204608F0CEF92846FDF7C2
:102C58005DFC02460B460F4903A809F0BDFE03AB15
:102C68001C226921204608F0BFF90B49204608F0CC
:102C7800F9F9B0232C226821204608F050F907B052
:102C880030BD00BF24010108280B0020B83A010814
:102C980068030108340301089C59010838B50D4B35
:102CA80018685968FFF7CCFD0B4CA068FFF72CFE9D
:102CB8000A4DA868FFF760FEA068FFF795FEA868B0
:102CC800FFF7DEFEE068FFF7A7FF054B5878FFF730
:102CD80021FF38BDD40D0020600A0020C40A00205E
:102CE800580C00202DE9F04186B0002404941D4BB7
:102CF8009A6942F010029A619A6902F010020092F1
:102D0800009A9A6942F008029A619B6903F00803E5
:102D18000193019B3C2702974FF00108CDF80C80E6
:102D280002250595104E02A9304606F05BFD4FF4CA
:102D3800E0730293CDF80C80049405950B4D02A91D
:102D4800284606F04FFD22463946304606F049FE31
:102D580022464FF47071284606F043FE06B0BDE8DF
:102D6800F08100BF00100240000C0140001001403B
:102D780008B528B900220421044806F032FE08BD2F
:102D880001220421014806F02CFEF8E7000C01405E
:102D980008B528B900220821044806F022FE08BD1B
:102DA80001220821014806F01CFEF8E7000C01404A
:102DB80008B528B900221021044806F012FE08BD03
:102DC80001221021014806F00CFEF8E7000C014032
:102DD80008B528B900222021044806F002FE08BDE3
:102DE80001222021014806F0FCFDF8E7000C014013
:102DF80010B5074CA078FFF7BBFFE078FFF7C8FFD6
:102E08002079FFF7D5FF6079FFF7E2FF10BD00BF1B
:102E1800580C002082B00A4BDA6942F00202DA61EB
:102E2800DA6902F002020092009A9A6942F00402FA
:102E38009A619B6903F004030193019B02B07047F8
:102E48000010024008B501221146072006F0F4FDE3
:102E5800072006F025FE022201211D2006F0ECFDC8
:102E68001D2006F01DFE08BD00B585B002230093A5
:102E7800064B0193012302930323039369460448F5
:102E880006F0B0FC05B05DF804FB00BF000021109F
:102E98000008014000B587B0062006F001FE0023B7
:102EA8000293039304930593009301931848194AD6
:102EB800026047224260836040F2F312C2600361FD
:102EC8008023836105F090FCC8B906A94FF48053AC
:102ED80041F8103D0E4805F0F5FA98B90023009323
:102EE800019369460A4805F069FD70B90848036806
:102EF80000225A6205F0DAFA07B05DF804FBFEF723
:102F08009BFBE2E7FEF798FBE8E7FEF795FBEDE7AA
:102F1800880C00200004004008B5084B00221A70F5
:102F28005A709A70DA705A60FFF774FFFFF78AFFD9
:102F3800FFF79AFFFFF7AEFF08BD00BFC80C0020DF
:102F4800054A53780133DBB25370312B02D913464B
:102F580000225A70704700BFC80C002010B502212B
:102F68003B4806F037FDF0B93A4A51789170002392
:102F7800537092F903300133DBB258B2D070A1F12B
:102F88001802D2B2042A0FD8324BFF22DA7001227B
:102F98001A7000229A705A602E4B93F903303D2B19
:102FA80041D03E2B4CD010BD2A4A12784728CCBFBE
:102FB800002401240028A8BF012A24D11CB30A1F19
:102FC800D2B203F00103022A0FD873B100EBD0701C
:102FD8004010C0F11F00012202FA00F01D4B5A6890
:102FE80002435A6000229A70D6E70239C9B2022910
:102FF8008CBF00210121002BCED00029CCD0154B4D
:1030080000229A70C8E71C2994BF00210121002AD8
:1030180018BF00210029BFD00E4B00229A701A70E9
:10302800DA705A60B8E70B494A680B48026090B2F8
:103038004881120C0A81FF2AB3D1084A1080B0E7F0
:10304800044B0022DA705A601A709A70ABE700BF1E
:1030580000080140C80C0020840C0020D40C00207B
:1030680008B5FFF77BFF08BD08B5AA4B1B8845F2DA
:10307800AA42934200F0898041D840F6F602934272
:1030880000F0AC8028D942F6D602934200F0E680E0
:1030980044F6B602934231D19F4B1888002840F07D
:1030A80099809E4B41F270721A804FF480709A4B4F
:1030B8001880042100F000FB984B1B8813B1013BDA
:1030C800964A1380954B1B8813B9934B00221A809C
:1030D800904B00221A8011E0FE2B0FD1904B012259
:1030E8001A70904A5379B3FA83F35B095371FFF767
:1030F80065F802F0F7FB874B00221A8008BD48F6F6
:103108007602934200F0EF8025D949F26A42934251
:103118004FD04CF636029342F0D1814B0F221A70F1
:103128007D4B1888B0F5807F00F01581B0F5007FE1
:1031380000F01181B0F5407F00F00D81B0F5806F8F
:1031480000F00981784B1B88002B40F01081032187
:1031580000F0B2FA0BE147F28E029342CED1704BE7
:1031680001221A706F4AD378B3FA83F35B09D370DC
:10317800E3B16E4B1878FFF781F8FFF71FF802F0FC
:10318800B1FB644B00221A80B8E7654B01221A7024
:10319800644A9378B3FA83F35B099370FFF70EF8E8
:1031A80002F0A0FB5B4B00221A80A7E7FFF790F81C
:1031B800E3E75B4B01221A705A4A1379B3FA83F397
:1031C8005B091371FEF7FAFF02F08CFB514B0022EA
:1031D8001A8093E7042100F06FFA6DE74E4B1B88C5
:1031E80083B1B3F5807F11D0B3F5007F0ED0B3F56E
:1031F800407F0BD0B3F5806F21D00021464B188853
:1032080000F05AFA434B00221A8077E748490A78B7
:10321800013AD2B20A70002AEFD10A46042111708D
:10322800A3F580739BB23C4A1380FF2BE5D8134665
:103238004FF480621A803E4B01221A70DDE73C4A47
:103248001378013BDBB21370002BD6D1134604224E
:103258001A70314B4FF440721A80CEE72E4B1B8800
:1032680083B1B3F5807F11D0B3F5007F0ED0B3F5ED
:10327800407F0BD0B3F5806F1FD00121264B1888F3
:1032880000F01AFA234B00221A8037E728490A78F7
:103298000132D2B20A70042AEFD90A46012111700C
:1032A80003F580739BB21C4A1380B3F5806FE4D991
:1032B80013464FF480721A80DFE71D4A13780133F2
:1032C800DBB21370012B06D9134601221A70124B78
:1032D8004FF480721A80164B1A780F4B19881548CC
:1032E80009F052FBC9E70E4B00221A700A4B1B88E3
:1032F800B3F5807F20D0B3F5007F1DD0B3F5407FB4
:103308001AD0B3F5806F17D003F47F43024A1380B5
:1033180018E000BFD40C0020EE030020F4030020C6
:10332800EC030020580C0020F2030020380C002089
:10333800000000206C0301080F4B00221A800F4B7D
:1033480001221A7002210C4B188800F0B5F90C4BB9
:1033580000221A80D2E6094B1B78184480B2064B2B
:103368001880084BC8221A80FF2100F0A5F9044BE9
:1033780000221A80C2E600BFEE03002000000020F1
:10338800D40C0020F2030020016042600123037284
:1033980000234372C372704770B588B00024059447
:1033A800069407942D4B9A6942F010029A619A6923
:1033B80002F010020192019A9A6942F020029A6181
:1033C8009A6902F020020292029A9A6942F008026F
:1033D8009A619B6903F008030393039B4FF40073FE
:1033E80004930125069504A91D4806F0FBF904235A
:1033F80004930594069504A91A4806F0F3F940F2D7
:10340800032304930594069504A9174806F0EAF9DE
:10341800164E174D224631462846FFF7B5FF22467D
:10342800314605F10C00FFF7AFFF2246314605F1A2
:103438001800FFF7A9FF2246314605F12400FFF7DF
:10344800A3FF2246314605F13000FFF79DFF05F046
:103458002BFC084B186008B070BD00BF001002407C
:103468000010014000140140000C014051380008D0
:10347800DC0C0020180D002010B50446042811D8D3
:10348800DFE800F0032A553F6A004FF40071464810
:1034980006F0A0FAC0B904EB44039A00434B134466
:1034A80000225A72620022449100404B0B445A7A1F
:1034B8001B7A9A426FD03D4A0A44D37A0133DBB271
:1034C800D372052B5DD010BD04EB44039A00374B33
:1034D800134401225A72E5E70421354806F07AFAC6
:1034E80038B904EB44039A00304B134400225A7253
:1034F800D8E704EB44039A002C4B134401225A7278
:10350800D0E74FF400712B4806F064FA38B904EBA1
:1035180044039A00254B134400225A72C2E704EB75
:1035280044039A00214B134401225A72BAE701213D
:103538001D4806F04FFA38B904EB44039A001B4BB8
:10354800134400225A72ADE704EB44039A00174B68
:10355800134401225A72A5E70221134806F03AFAE9
:1035680038B904EB44039A00104B134400225A72F2
:1035780098E704EB44039A000C4B134401225A7257
:1035880090E70A496300181982000A44507A1072B9
:103598000023D37297E704EB4404A200034B1344BF
:1035A8000022DA728FE700BF000C0140DC0C00201B
:1035B8000014014000100140F8B505F075FB374BC9
:1035C8001B68C01A042867D900240CE00BB9042C26
:1035D80037D005EB45039A00314B13441B7A012B76
:1035E8003FD00134E4B2042C40D82046FFF744FF12
:1035F800254604EB44039A00294B13441B7A002BFD
:10360800E4D104EB44029100254A0A44927A002A44
:10361800DCD1234F6B002B449E00BB1901229A7208
:10362800204B41F270721A80FEF79EFABA591E4B6F
:103638009A420BD000221C4938463044FFF7A4FEBA
:10364800C7E71A4B1B88002BC3D1E2E7184804F0E0
:103658005AFE05EB45029300114AD3582046984775
:10366800B7E70F4B134400229A72BAE70D4B1B8839
:1036780013B1013B0B4A13800A4B1B8813B90B4B40
:1036880000221A800B4B1B8813B1013B094A138097
:1036980005F00AFB014B1860F8BD00BF180D0020AB
:1036A800DC0C0020F403002051380008EE03002051
:1036B800F40E0020F20300202DE9F84305460E46DB
:1036C80000242AE0DFF87891484607F0C9F95549FF
:1036D800484607F0C7FC0021484607F087FD524BD3
:1036E8004FF0640808FB043808F102084046FCF76C
:1036F80097FDC0F116035B0803EB430359004346EB
:103708000C2201F0FE01484607F06EFC01214846F4
:1037180007F06CFD73E00134E4B2112C7ED8434805
:1037280004F0F1FD2746642303FB04F33E4AD35A11
:10373800AB42F0D1642303FB0423DB6D002BEAD0FA
:10374800B5F5807F08D0B5F5007F05D0B5F5407F89
:1037580002D0B5F5806FB5D1DFF8E480404607F0B8
:103768007FF93049404607F07DFC0021404607F0CC
:103778003DFD2F4B0C221E21404607F035FC012150
:10378800404607F033FD284B4FF0640909FB073921
:1037980009F102094946002007F0F2FF0346182202
:1037A8000A21404607F020FC4946012007F0E8FFBF
:1037B800034624220A21404607F016FC4946022007
:1037C80007F0DEFF034630220A21404607F00CFCD2
:1037D8004946032007F0D4FF03463C220A2140460D
:1037E80007F002FC134B1B78013303EB43039A00E9
:1037F800114B02F0FC020121404607F0F5FB0F498E
:103808000F4807F02FFC084B642202FB0737FB6DBB
:103818003146204698470B4B1D8001E005F47F4058
:10382800BDE8F883DC45010898030108F40E002080
:10383800840301080000002094030108003E0108E9
:10384800280B0020F003002008B5042800F2B980F6
:10385800DFE800F0430396B882006E4B41F27072C5
:103868001A806D4B1B88002B00F0AB80B3F5807F6E
:1038780017D0B3F5007F14D0B3F5407F11D0B3F55E
:10388800806F24D1654A13780133DBB21370012BA2
:103898001DD9134601221A705F4B4FF480721A80AB
:1038A80015E05E490A780132D2B20A70042A0ED9AC
:1038B8000A460121117003F580739BB2564A1380A2
:1038C800B3F5806F03D913464FF480721A8001460E
:1038D800514B1888FFF7F0FE73E04E4B41F27072BF
:1038E8001A804D4B1B88002B6BD0B3F5807F16D008
:1038F800B3F5007F13D0B3F5407F10D0B3F5806FD8
:1039080024D1464A1378013BDBB21370F3B913464E
:1039180004221A70404B4FF440721A8016E03F4957
:103928000A78013AD2B20A7082B90A4604211170A3
:10393800A3F580739BB2384A1380FF2B06D8134631
:103948004FF480621A80354B01221A700146324BBF
:103958001888FFF7B1FE34E02F4B1B885BB9304B5A
:1039680000221A804FF480732B4A138001461846B0
:10397800FFF7A2FE25E001461846FFF79DFE20E06E
:10398800284B00221A70244B1B88B3F5807F0DD07A
:10399800B3F5007F0AD0B3F5407F07D0B3F5806F49
:1039A80004D003F47F431C4A138005E01A4B00221D
:1039B8001A801A4B01221A700146174B1888FFF714
:1039C8007BFE08BD174B0F221A70134B1B88B3F5EB
:1039D800807F11D0B3F5007F0ED0B3F5407F0BD0B8
:1039E800B3F5806F08D00B4A1288002AE9D1014646
:1039F8001846FFF761FEE4E7084A1078184480B2D9
:103A0800054B1880034B4FF416721A80FF21FFF7FD
:103A180053FED6E7F2030020EE030020000000204A
:103A2800F6030020EC03002000207047034B044AF3
:103A38001168526819605A6000207047A00D002074
:103A4800D40D0020002070470020704700207047E8
:103A58002DE9F04182B005460C465A220021A048C3
:103A680008F000F8642000FB05F09E4B1D5A9E4BA1
:103A78001B889D4202D09D4B00221A80032C09D03E
:103A8800DCB99A4B1B88052B17D8DFE803F00E31F9
:103A98003A434C55954A138801339BB21380052B42
:103AA800EED9134600221A80EAE7914B93F90530C4
:103AB800162B02DC01338E4A5371012C47D08D4EF0
:103AC8008D49304607F0CEFA42F2F133242205211F
:103AD800304607F024FA854B1B88052B00F2B3808B
:103AE800DFE813F07600B800180154019001D60100
:103AF8007F4B93F906303A2BDFDC01337C4A937114
:103B0800DBE77B4B93F907303A2BD6DC0133784A55
:103B1800D371D2E7764B93F903301E2BCDDC0133FA
:103B2800734AD370C9E7724B93F902300B2BC4DC8C
:103B380001336F4A9370C0E76D4BB3F9003040F61C
:103B480032029342B9DC0133694A1380B5E7674B07
:103B58001B88052BB3D8DFE803F0030C151E2730AC
:103B6800634B93F90530002BA9D0013B604A537190
:103B7800A5E75F4B93F90630002BA0D0013B5C4AC8
:103B880093719CE75A4B93F90730002B97D0013B70
:103B9800574AD37193E7564B93F90330012B8EDDC7
:103BA800013B534AD3708AE7514B93F90230012BFA
:103BB80085DD013B4E4A937081E74D4BB3F90030E8
:103BC800B3F5FA6F7FF77BAF013B494A138076E77D
:103BD800484E4A49304607F045FA0021304607F07A
:103BE80005FBDFF80C813E4F98F90520444938461B
:103BF80008F0F2FE3B4624221146304607F0F4F95D
:103C08000121304607F0F2FA98F9073098F90620B2
:103C18003C49384608F0E0FE3B4624223021304635
:103C280007F0E2F998F9032098F90230B8F9001082
:103C380000913549384608F0CFFE3B4630221E2118
:103C4800304607F0D1F9042C00F05E81284602B016
:103C5800BDE8F081274F2949384607F003FADFF815
:103C680090801F4E98F905202849304608F0B4FE88
:103C7800334624221146384607F0B6F90021384663
:103C880007F0B4FA98F906201D49304608F0A4FE5A
:103C9800334624223621384607F0A6F90121384652
:103CA80007F0A4FA98F907201949304608F094FE5D
:103CB800334624224221384607F096F998F9032022
:103CC80098F90230B8F9001000910F49304608F011
:103CD80083FE334630221E21384607F085F9B2E7C5
:103CE800440D002098030108F0030020D80C0020A0
:103CF800A00D0020280B00209C590108DC45010874
:103D08003C0B01085C0B010858030108440B01082F
:103D180044030108864E8749304607F0A3F9DFF8C7
:103D28004482854F98F9063098F90520834938462A
:103D380008F052FE3B4624221146304607F054F95B
:103D48000021304607F052FA98F907207C49384696
:103D580008F042FE3B4624224821304607F044F949
:103D68000121304607F042FA98F9032098F9023009
:103D7800B8F9001000917349384608F02DFE3B460B
:103D880030221E21304607F02FF95CE7684E69495A
:103D9800304607F067F9DFF8CC8198F9052098F9E3
:103DA800063098F90710644F00916749384608F0C3
:103DB80013FE3B4624221146304607F015F9002130
:103DC800304607F013FA98F903205D49384608F0A1
:103DD80003FE3B4630221E21304607F005F901213B
:103DE800304607F003FAB8F9003098F9022057492D
:103DF800384608F0F1FD3B4630222A21304607F0CC
:103E0800F3F820E74A4F4B49384607F02BF9DFF81B
:103E1800548198F9052098F9063098F90710464E0C
:103E280000914949304608F0D7FD3346242211460F
:103E3800384607F0D9F898F903204549304608F084
:103E4800CBFD334630221E21384607F0CDF800213D
:103E5800384607F0CBF998F902203949304608F07E
:103E6800BBFD334630221146384607F0BDF8012124
:103E7800384607F0BBF9B8F900203649304608F053
:103E8800ABFD334630223C21384607F0ADF8DAE680
:103E9800274E2849304607F0E5F8DFF8C88098F93A
:103EA800052098F9063098F90710234F0091264904
:103EB800384608F091FD3B4624221146304607F06B
:103EC80093F898F9023098F903202349384608F006
:103ED80083FD3B4630221E21304607F085F800213D
:103EE800304607F083F9B8F900201C49384608F035
:103EF80073FD3B4630224221304607F075F8012118
:103F0800304607F073F99EE61548164B1A685B6849
:103F1800026043604379073B4371072101F07AFD52
:103F2800114B3C223021024807F05EF88EE600BFB4
:103F3800280B0020DC450108440D00204C0B01082B
:103F48003C0B010858030108580B01085C030108E1
:103F5800680B0108700B0108780B0108840B010835
:103F6800D40D0020A00D00208C0B0108F8B50446E4
:103F78000D465A220021484807F074FD642000FBD2
:103F880004F0464B1E5A464B1B889E4203D0454BB5
:103F98001A78454B1A8035B9434B1B88032B02D836
:103FA8000133414A1380012D3BD0404C4049204603
:103FB80007F058F842F2F63318223821204606F066
:103FC800AEFF394B1B88A3B3012B37D0022B3DD052
:103FD800032B43D0042B47D0344C3649204607F0F6
:103FE80041F82D4F3846FCF71BF9C0F11600400880
:103FF80000EB400041003B46242201F0FE01204630
:1040080006F0F2FF2A49204607F02CF842F2F7336F
:1040180032223821204606F082FF042D2AD030466D
:10402800F8BD214B1B88002BBFD0013B1E4A1380D3
:10403800BBE7214A1068184A1060C5E7164C1F4AAA
:1040480003CA2060616012882281BFE7124C1C4AB3
:1040580003CA2060616012882281B9E70E4C194AB0
:1040680003CA20606160B5E70B4A174B03CB1060A9
:104078005160B1E70C4B1A780A4B1A70FDF7ACFF88
:104088000C49204606F0EEFF104B3C22302120461A
:1040980006F0AAFFC3E700BF440D002098030108FB
:1040A800F0030020380C00201C0D0020280B0020F5
:1040B8009C590108DC450108EC020108940B010831
:1040C800A00B0108AC0B0108B40B01088C0B01080C
:1040D800F8B504460D465A2200213B4807F0C2FCB9
:1040E800642000FB04F0394B1A5A394B1B889A425A
:1040F80003D0384BDA88384B1A803DB9364B1B88C9
:10410800B3F5487F02D20133334A1380012D41D0E1
:10411800324E334C3146204606F0A4FF42F2F233C9
:1041280026222321204606F0FAFE3146204606F0D4
:1041380099FF42F2F63318223821204606F0EFFEA6
:10414800214F254B1A882749384608F045FC26494F
:10415800204606F087FF3846FCF762F8C0F11600E3
:10416800400800EB400041003B46242201F0FE01DC
:10417800204606F039FF3146204606F073FF42F22A
:10418800F73332223821204606F0C9FE042D09D023
:104198000020F8BD104B1B88002BB9D0013B0E4AFC
:1041A8001380B5E70C4B1A880A4BDA80FDF714FF29
:1041B8000D49204606F056FF0C4B3C223021204684
:1041C80006F012FFE4E700BF440D00209803010841
:1041D800F0030020380C00201C0D00209C59010819
:1041E800280B0020340B0108DC4501088C0B010862
:1041F80070B504460D465A220021554807F032FC96
:10420800642000FB04F0534B1A5A534B1B889A4204
:1042180003D0524B5A78524B1A801DB9504B1B8809
:10422800012B3ED9012D40D04E4C4F49204606F077
:1042380019FF42F2F73318223821204606F06FFEA4
:10424800474B1B88002B38D0454B1B88012B46D089
:10425800434B1B88022B56D0424C4449204606F05B
:1042680001FF3B4E3046FBF7DBFFC0F1160040086C
:1042780000EB400041003346242201F0FE012046B5
:1042880006F0B2FE3849204606F0ECFE42F2F7335B
:1042980032223821204606F042FE042D47D0002065
:1042A80070BD01332E4A1380BCE72D4B1B88002BB1
:1042B800BAD0013B2A4A1380B6E72B49204606F0BC
:1042C800D1FE42F2A35324221421204606F027FEF1
:1042D8001F4B274A1068186012791A71B4E7214CED
:1042E8002149204606F0BEFE42F2A453242214219E
:1042F800204606F014FE164A1E4B03CB1060516090
:104308001B881381A4E7174C1749204606F0AAFE1C
:1043180042F2A55324221421204606F000FE0C4A3E
:10432800154B03CB106051601B88138194E70C4B2D
:104338001A880A4B5A70FDF74FFE0C49204606F0C2
:1043480091FE0E4B3C223021204606F04DFEA6E79A
:10435800440D002098030108F0030020380C0020C9
:104368001C0D0020280B00209C590108DC45010881
:10437800140B01081C0B0108280B01088C0B010801
:10438800F0B583B004460D46404808F0FDFA5A22BD
:1043980000213F4807F066FB642000FB04F03D4B1A
:1043A8001A5A3D4B1B889A4203D03C4B9A783C4B97
:1043B8001A803C4C3C49204606F054FE4FF41853F2
:1043C80024220521204606F0AAFD35B9344B1B8866
:1043D800632B02D80133324A1380012D3DD0304F70
:1043E8003878FDF7B1FB3B782E4C0A220092182250
:1043F8001421204606F0A7FA2B49204606F032FE83
:1044080042F2EB3330222821204606F088FD42F2A2
:10441800EC3330224D21204606F081FD1C4E3A88AF
:104428002249304608F0D8FA2149204606F01AFEFB
:104438003046FBF7F5FEC0F11600400800EB4000DF
:1044480041003346302201F0FE01204606F0CCFD43
:10445800042D0AD0002003B0F0BD114B1B88002B9F
:10446800BDD0013B0E4A1380B9E73A780B4B9A70DE
:10447800FDF7B2FD0E49204606F0F4FD0D4B3C2237
:104488003021204606F0B0FDE4E700BFF40A010839
:10449800440D002098030108F0030020380C002088
:1044A8001C0D0020280B00209C5901080C0B01084A
:1044B800DC4501088C0B010870B504460D465A22EC
:1044C8000021484807F0CEFA642000FB04F0464B70
:1044D8001A5A464B1B889A4203D0454BDA78454B0B
:1044E8001A802DB9434B1B8813B90133414A1380F5
:1044F800012D37D0404C4149204606F0B3FD42F229
:10450800F63318223821204606F009FD394B1B885E
:1045180083B3384B1B88012B3ED0374C3849204693
:1045280006F0A0FD2F4E3046FBF77AFEC0F11600CC
:10453800400800EB400041003346242201F0FE0110
:10454800204606F051FD2D49204606F08BFD42F22B
:10455800F73332223821204606F0E1FC042D30D012
:10456800002070BD234B1B88002BC3D0013B214A80
:104578001380BFE72149204606F074FD42F210631C
:1045880024222321204606F0CAFC1E4B1868154B2E
:104598001860FDF7E3FABCE7174C1849204606F007
:1045A80061FD42F2116324222321204606F0B7FC64
:1045B8000C4B154A1188927819809A70FDF7D4FA35
:1045C800ABE70C4B1A780A4BDA70FDF705FD0C497E
:1045D800204606F047FD0D4B3C223021204606F0D0
:1045E80003FDBDE7440D002098030108F0030020F7
:1045F800380C00201C0D0020280B00209C590108B5
:10460800DC450108EC020108E80201088C0B0108EE
:1046180038B504465A220021264807F023FA6420B8
:1046280000FB04F0244B1A5A244B1B889A4202D0F0
:10463800234B00221A80234B5B68234A934205D9F7
:104648004FF4616202FB03F31E4A53601F4C20497A
:10465800204606F007FD42F2F03336223721204685
:1046680006F05DFC174B5A681A4BA3FB0232114D3A
:10467800D20A1949284608F0AFF91849204606F029
:10468800F1FC174B18221221204606F0ADFC2846F3
:10469800FBF7C6FDC0F11600400800EB40004100E2
:1046A8002B46242201F0FE01204606F09DFC002046
:1046B80038BD00BF440D002098030108F003002016
:1046C8001C0D0020640C0020FF502502280B002040
:1046D8009C590108C5B3A291F40B0108DC450108F7
:1046E800000C010838B504465A220021264807F074
:1046F800B9F9642000FB04F0244B1A5A244B1B8898
:104708009A4202D0234B00221A80234B9B68234AEB
:10471800934205D94FF4616202FB03F31E4A93608A
:104728001F4C2049204606F09DFC42F2F033362209
:104738003721204606F0F3FB174B9A681A4BA3FB68
:104748000232114DD20A1949284608F045F918498C
:10475800204606F087FC174B18220621204606F053
:1047680043FC2846FBF75CFDC0F11600400800EB4F
:10477800400041002B46242201F0FE01204606F0AD
:1047880033FC002038BD00BF440D00209803010809
:10479800F00300201C0D0020640C0020FF502502AF
:1047A800280B00209C590108C5B3A291F40B0108FD
:1047B800DC450108BC0B010838B504465A22002123
:1047C800264807F04FF9642000FB04F0244B1A5ADE
:1047D800244B1B889A4202D0234B00221A80234B79
:1047E800DB68234A934205D94FF4616202FB03F365
:1047F8001E4AD3601F4C2049204606F033FC42F283
:10480800F03336223721204606F089FB174BDA6849
:104818001A4BA3FB0232114DD20A1949284608F057
:10482800DBF81849204606F01DFC174B1822062114
:10483800204606F0D9FB2846FBF7F2FCC0F116002B
:10484800400800EB400041002B46242201F0FE0105
:10485800204606F0C9FB002038BD00BF440D0020EB
:1048680098030108F00300201C0D0020640C0020B0
:10487800FF297515280B00209C590108C5B3A29182
:10488800D00B0108DC450108DC0B0108F0B583B04A
:1048980005460C465A220021A54807F0E3F8642093
:1048A80000FB05F0A34B1A5AA34B1B889A420CD065
:1048B8000023A24A1380A24A1380A24A1370A24A74
:1048C8001370A24A1370A24A1370032C08D0CCB9F3
:1048D8009B4B1B88032B15D8DFE803F00D2B333BCC
:1048E800974A138801339BB21380032BEFD91346E1
:1048F80000221A80EBE7964B1B78082B02D801336D
:10490800934A1370012C2CD0924D9349284606F0F7
:10491800A9FB924B18221221284606F065FB884B0A
:104928001B88032B70D8DFE813F044009700CD00F4
:104938002301864B1B78082BE4D80133834A137074
:10494800E0E7814B1B78082BDCD801337E4A1370D3
:10495800D8E77C4B1B78082BD4D80133794A1370DD
:10496800D0E7774B1B88032BCED8DFE803F0020A89
:10497800121A774B1B78002BC6D0013B744A137070
:10498800C2E7724B1B78002BBED0013B6F4A1370F5
:10499800BAE76D4B1B78002BB6D0013B6A4A1370FF
:1049A800B2E7684B1B78002BAED0013B654A137009
:1049B800AAE7684D6849284606F054FB00212846B6
:1049C80006F014FC5A4E624B1A786549304608F0D6
:1049D80003F8334624223021284606F005FB01213E
:1049E800284606F003FC584B1B78584A127855495C
:1049F800097800915B49304607F0EEFF33462422E0
:104A08003621284606F0F0FA514B1B78C3EB4312C7
:104A180003EB8202D3004D4A127802EB820202EBCA
:104A2800820291000B449BB2474A127802EB820241
:104A380051000B449BB2434A127813449BB23F4A3D
:104A48001380494A1289934200F0BE80042C00F07A
:104A5800EB80002003B0F0BD3E4D3F49284606F0EC
:104A680001FB3F4F324E3A4B1A783946304607F031
:104A7800B3FF334624223021284606F0B5FA002138
:104A8800284606F0B3FB314B1A783946304607F012
:104A9800A3FF334624223621284606F0A5FA012131
:104AA800284606F0A3FB274B1B78274A12782F4984
:104AB800304607F091FF334624223C21284606F071
:104AC80093FAA1E7234D2449284606F0CBFA184E5D
:104AD8001E4B1B781E4A12782449304607F07CFF8B
:104AE800334624223021284606F07EFA0021284643
:104AF80006F07CFB1A4F144B1A783946304607F0FB
:104B08006BFF334624223C21284606F06DFA01212A
:104B1800284606F06BFB0B4B1A783946304607F0EF
:104B28005BFF334624224221284606F05DFA6BE7F4
:104B3800440D002098030108F00300201C0D0020FC
:104B4800D80C0020A80D00209F0D0020AA0D0020E1
:104B5800200D0020280B0020DC450108A00A0108D0
:104B6800B40A0108B00A0108380C0020B80A010884
:104B78003D4D3E49284606F075FA3D4B1B783D4AA7
:104B880012783D4E3D49097800913D49304607F07D
:104B980023FF334624223021284606F025FA002137
:104BA800284606F023FB374B1A783749304607F07A
:104BB80013FF334624224221284606F015FA012124
:104BC800284606F013FB1FE7042C7FF442AF2F4D55
:104BD80000236B60FDF796FBFDF7FEF9264C6A682B
:104BE8002B49204607F0F8FE2046FBF719FBC0F1D9
:104BF8001600400800EB400041001B4E23462422CB
:104C080001F0FE01304606F0EFF9224D0FCD20608D
:104C18006160A260E3602B8823821F4B3022182139
:104C2800304606F0E1F914E7134C184B5A68184956
:104C3800204607F0D1FE2046FBF7F2FAC0F1160035
:104C4800400800EB40004100074D2346242201F0B4
:104C5800FE01284606F0C8F9104B302212212846DA
:104C680006F0C2F9F5E600BF280B0020DC45010874
:104C7800AA0D0020200D0020440D00209F0D0020CB
:104C8800B00A0108A80D0020B40A0108640C00202D
:104C9800F40B0108C00A0108D40A0108E40A010853
:104CA800F0B583B005460C465A220021A54806F007
:104CB800D9FE642000FB05F0A34B1A5AA34B1B88AE
:104CC8009A420CD00023A24A1380A24A1380A24A17
:104CD8001370A24A1370A24A1370A24A1370032CCD
:104CE80008D0CCB99B4B1B88032B15D8DFE803F001
:104CF8000D2B333B974A138801339BB21380032B48
:104D0800EFD9134600221A80EBE7964B1B78082B45
:104D180002D80133934A1370012C2CD0924D934939
:104D2800284606F09FF9924B18221221284606F0D1
:104D38005BF9884B1B88032B70D8DFE813F044001D
:104D48009700CD002301864B1B78082BE4D801334C
:104D5800834A1370E0E7814B1B78082BDCD80133BA
:104D68007E4A1370D8E77C4B1B78082BD4D80133C4
:104D7800794A1370D0E7774B1B88032BCED8DFE82E
:104D880003F0020A121A774B1B78002BC6D0013B9E
:104D9800744A1370C2E7724B1B78002BBED0013BDC
:104DA8006F4A1370BAE76D4B1B78002BB6D0013BE6
:104DB8006A4A1370B2E7684B1B78002BAED0013BF0
:104DC800654A1370AAE7684D6849284606F04AF90B
:104DD8000021284606F00AFA5A4E624B1A786549AD
:104DE800304607F0F9FD334624223021284606F0E4
:104DF800FBF80121284606F0F9F9584B1B78584A68
:104E080012785549097800915B49304607F0E4FD6E
:104E1800334624223621284606F0E6F8514B1B7803
:104E2800C3EB431203EB8202D3004D4A127802EB24
:104E3800820202EB820291000B449BB2474A12782D
:104E480002EB820251000B449BB2434A127813448E
:104E58009BB23F4A1380494A1289934200F0BE80B0
:104E6800042C00F0EB80002003B0F0BD3E4D3F491C
:104E7800284606F0F7F83F4F324E3A4B1A78394633
:104E8800304607F0A9FD334624223021284606F093
:104E9800ABF80021284606F0A9F9314B1A783946B3
:104EA800304607F099FD334624223621284606F07D
:104EB8009BF80121284606F099F9274B1B78274AC9
:104EC80012782F49304607F087FD334624223C21CB
:104ED800284606F089F8A1E7234D2449284606F01C
:104EE800C1F8184E1E4B1B781E4A127824493046CA
:104EF80007F072FD334624223021284606F074F864
:104F08000021284606F072F91A4F144B1A783946D0
:104F1800304607F061FD334624223C21284606F03E
:104F280063F80121284606F061F90B4B1A783946D7
:104F3800304607F051FD334624224221284606F028
:104F480053F86BE7440D002098030108F003002094
:104F58001C0D0020D80C0020A80D00209F0D00205B
:104F6800AA0D0020200D0020280B0020DC45010898
:104F7800A00A0108B40A0108B00A0108380C002088
:104F8800B80A01083D4D3E49284606F06BF83D4BEE
:104F98001B783D4A12783D4E3D49097800913D49BC
:104FA800304607F019FD334624223021284606F002
:104FB8001BF80021284606F019F9374B1A783749AB
:104FC800304607F009FD334624224221284606F0E0
:104FD8000BF80121284606F009F91FE7042C7FF495
:104FE80042AF2F4D0023AB60FDF78CF9FCF7F4FFBF
:104FF800264CAA682B49204607F0EEFC2046FBF712
:105008000FF9C0F11600400800EB400041001B4EAC
:105018002346242201F0FE01304605F0E5FF224D2B
:105028000FCD20606160A260E3602B8823821F4B54
:1050380030221821304605F0D7FF14E7134C184BDF
:105048009A681849204607F0C7FC2046FBF7E8F89D
:10505800C0F11600400800EB40004100074D234610
:10506800242201F0FE01284605F0BEFF104B302235
:105078001221284605F0B8FFF5E600BF280B0020EE
:10508800DC450108AA0D0020200D0020440D002059
:105098009F0D0020B00A0108A80D0020B40A0108DD
:1050A800640C0020F40B0108C00A0108D40A0108A6
:1050B800E40A0108F0B583B005460C465A220021DF
:1050C800A54806F0CFFC642000FB05F0A34B1A5A54
:1050D800A34B1B889A420CD00023A24A1380A24AF1
:1050E8001380A24A1370A24A1370A24A1370A24AEC
:1050F8001370032C08D0CCB99B4B1B88032B15D8F5
:10510800DFE803F00D2B333B974A138801339BB23A
:105118001380032BEFD9134600221A80EBE7964B36
:105128001B78082B02D80133934A1370012C2CD01A
:10513800924D9349284605F095FF924B182212216B
:10514800284605F051FF884B1B88032B70D8DFE8F1
:1051580013F044009700CD002301864B1B78082BE1
:10516800E4D80133834A1370E0E7814B1B78082B9E
:10517800DCD801337E4A1370D8E77C4B1B78082BA8
:10518800D4D80133794A1370D0E7774B1B88032BA7
:10519800CED8DFE803F0020A121A774B1B78002BEF
:1051A800C6D0013B744A1370C2E7724B1B78002BC0
:1051B800BED0013B6F4A1370BAE76D4B1B78002BCA
:1051C800B6D0013B6A4A1370B2E7684B1B78002BD4
:1051D800AED0013B654A1370AAE7684D6849284676
:1051E80005F040FF0021284606F000F85A4E624BB1
:1051F8001A786549304607F0EFFB33462422302100
:10520800284605F0F1FE0121284605F0EFFF584B2E
:105218001B78584A12785549097800915B493046FD
:1052280007F0DAFB334624223621284605F0DCFE57
:10523800514B1B78C3EB431203EB8202D3004D4A58
:10524800127802EB820202EB820291000B449BB2BD
:10525800474A127802EB820251000B449BB2434A40
:10526800127813449BB23F4A1380494A12899342E9
:1052780000F0BE80042C00F0EB80002003B0F0BDED
:105288003E4D3F49284605F0EDFE3F4F324E3A4B22
:105298001A783946304607F09FFB334624223021DE
:1052A800284605F0A1FE0021284605F09FFF314B56
:1052B8001A783946304607F08FFB334624223621C8
:1052C800284605F091FE0121284605F08FFF274B5F
:1052D8001B78274A12782F49304607F07DFB334662
:1052E80024223C21284605F07FFEA1E7234D2449CE
:1052F800284605F0B7FE184E1E4B1B781E4A12783A
:105308002449304607F068FB3346242230212846DA
:1053180005F06AFE0021284605F068FF1A4F144B75
:105328001A783946304607F057FB334624223C2189
:10533800284605F059FE0121284605F057FF0B4B7A
:105348001A783946304607F047FB33462422422173
:10535800284605F049FE6BE7440D00209803010834
:10536800F00300201C0D0020D80C0020A80D002000
:105378009F0D0020AA0D0020200D0020280B0020E2
:10538800DC450108A00A0108B40A0108B00A0108AE
:10539800380C0020B80A01083D4D3E49284605F062
:1053A80061FE3D4B1B783D4A12783D4E3D490978D8
:1053B80000913D49304607F00FFB33462422302147
:1053C800284605F011FE0021284605F00FFF374B4F
:1053D8001A783749304607F0FFFA3346242242212B
:1053E800284605F001FE0121284605F0FFFE1FE7CB
:1053F800042C7FF442AF2F4D0023EB60FCF782FFB3
:10540800FCF7EAFD264CEA682B49204607F0E4FA47
:105418002046FAF705FFC0F11600400800EB4000EF
:1054280041001B4E2346242201F0FE01304605F0C0
:10543800DBFD224D0FCD20606160A260E3602B8808
:1054480023821F4B30221821304605F0CDFD14E78A
:10545800134C184BDA681849204607F0BDFA204665
:10546800FAF7DEFEC0F11600400800EB40004100EC
:10547800074D2346242201F0FE01284605F0B4FD1D
:10548800104B30221221284605F0AEFDF5E600BF8C
:10549800280B0020DC450108AA0D0020200D002063
:1054A800440D00209F0D0020B00A0108A80D00201F
:1054B800B40A0108640C0020D00B0108C00A0108D6
:1054C800D40A0108E40A010870B504460D465A22B8
:1054D8000021464806F0C6FA642000FB04F0444B5D
:1054E8001A5A444B1B889A4203D0434B1A79434BB0
:1054F8001A802DB9414B1B8813B901333F4A1380D9
:10550800012D37D03E4C3F49204605F0ABFD42F215
:10551800F63318223821204605F001FD374B1B8849
:1055280083B3364B1B88012B3CD0354C364920467B
:1055380005F098FD2D4E3046FAF772FEC0F11600C0
:10554800400800EB400041003346242201F0FE01F0
:10555800204605F049FD2B49204605F083FD42F21F
:10556800F73332223821204605F0D9FC042D2CD0FF
:10557800002070BD214B1B88002BC3D0013B1F4A64
:105588001380BFE71F49204605F06CFD42F2106307
:1055980024222321204605F0C2FC1C4B1868134B1B
:1055A8001860BEE7164C1749204605F05BFD42F22D
:1055B800116324222321204605F0B1FC0B4B144A29
:1055C8001188927819809A70AFE70C4B1A780A4BB9
:1055D8001A71FCF701FD0C49204605F043FD0D4BFF
:1055E8003C223021204605F0FFFCC1E7440D002095
:1055F80098030108F0030020380C00201C0D00203F
:10560800280B00209C590108DC450108EC02010820
:10561800E80201088C0B010810B584B0002401943D
:1056280003943F2300930123029369460C4804F036
:10563800D9F80C4B1C7009E00A4800EB83020021E2
:1056480051709170D170117101330370054B1B7843
:10565800052BF1D903F028FB024BD86104B010BD2B
:1056680000100140AC0D002010B5044605280ED8E6
:10567800DFE800F003243546576801213F4804F06D
:10568800A9F9A8B93E4B03EB840301229A703C4B5D
:1056980003EB84039A785B789A4269D0384A02EB24
:1056A800840213790133DBB21371052B5BD010BD73
:1056B800334B03EB840300229A70E8E702212F485A
:1056C80004F088F928B92E4B03EB840301229A7061
:1056D800DDE72B4B03EB840300229A70D7E7042104
:1056E800264804F077F928B9254B03EB84030122F7
:1056F8009A70CCE7224B03EB840300229A70C6E72A
:1057080008211E4804F066F928B91D4B03EB8403F1
:1057180001229A70BBE71A4B03EB840300229A70AC
:10572800B5E71021154804F055F928B9144B03EBD7
:10573800840301229A70AAE7114B03EB8403002229
:105748009A70A4E720210D4804F044F928B90C4BBD
:1057580003EB840301229A7099E7094B03EB840356
:1057680000229A7093E793785370002313719EE791
:10577800034B03EB84040023237198E700100140D6
:10578800AC0D002010B50024304B1C7031E02F49BF
:1057980001EB8301C97889B9042B0CD8DFE803F041
:1057A800030D05070900144608E0052406E0072450
:1057B80004E0092402E00C4600E00324234A02EB3B
:1057C80083020121D17021E002240AE0062408E0C6
:1057D800082406E00A2404E00C2402E0144600E051
:1057E80004241A4A02EB83020021D1700133174ABC
:1057F8001370164B1878052826D8FFF735FF134A7B
:10580800137802EB83025278012AC0D00F4A02EBC8
:1058180083025278002AE9D10C4901EB8301C97847
:105828000129DED1052BD9D801A151F823F000BFF9
:10583800D1570008E9570008D5570008D95700087C
:10584800DD570008E1570008204610BDAC0D0020C8
:1058580008B503F029FA204BDB69C01A012813D9CF
:10586800FFF790FF013805280AD8DFE800F0031C8D
:105878000E24152C194B0F221A70194B01225A703D
:1058880003F012FA144BD86108BD144B0F221A709A
:10589800134B02225A70F3E7104B0F221A70104B69
:1058A80003225A70ECE70E4A5378013B53700B4BB6
:1058B8000F221A70E4E70A4A5378013B5370074BEA
:1058C8000F221A70DCE7064A5378013B5370034BEA
:1058D8000F221A70D4E700BFAC0D0020EC030020A3
:1058E800580C002008B5094B00221A71084B1B7987
:1058F80003B908BD01224FF48071064804F071F81D
:1059080003F0D2F9014B1860F3E700BFCC0D00207B
:10591800380C0020000C014008B503F0C5F9184AFE
:105928001368C01A1379012B0FD013B1022B1AD0A8
:1059380008BD6428FCD900224FF48071114804F096
:1059480050F80F4B03221A71F2E740F2DC539842E9
:10595800EED900224FF480710A4804F042F8084B4F
:1059680003221A71E4E7B0F57A7FE1D94FF4807128
:10597800044804F03CF803F097F9014B1860D7E7A6
:10598800CC0D0020000C014070B586B000260496AE
:105998000E4B9A6942F008029A619B6903F008036A
:1059A8000193019B4FF48075029501230393022311
:1059B8000593074C02A9204603F014FF32462946F6
:1059C800204604F00EF806B070BD00BF001002407B
:1059D800000C014000B58BB0B0F90030A3F26C7335
:1059E800069390F90230013B059390F90330049334
:1059F80090F90530039390F90630029390F9073037
:105A080001934FF0FF33099301A806F00DF90BB08D
:105A18005DF804FB38B50D460A4C2268136823F07C
:105A280001031360FFF7D6FF4FF4616101FB050125
:105A3800204603F078FE2268136843F001031360E0
:105A480038BD00BFE00D002008B503F02DF91D4B4F
:105A580018601D481D4B03604FF0FF33436000235F
:105A6800836003F0EBFD88B90121174803F0B2FE0B
:105A78004AF2A55398420CD1154B5A6A5B6A154BEA
:105A880001221A60104803F065FE08BDFBF7D4FD3B
:105A9800EAE711486FF01C030370072343700A23D9
:105AA80083701123C3700721417123238371142349
:105AB800C371FFF7AFFF4AF2A5520121024803F074
:105AC80081FEDFE7DC0D0020E00D0020002800400B
